{
  "_format": "hh-sol-artifact-1",
  "contractName": "ClickBackUpg",
  "sourceName": "contracts/ClickBackUpg.sol",
  "abi": [
    {
      "anonymous": false,
      "inputs": [
        {
          "indexed": true,
          "internalType": "address",
          "name": "owner",
          "type": "address"
        },
        {
          "indexed": true,
          "internalType": "address",
          "name": "spender",
          "type": "address"
        },
        {
          "indexed": false,
          "internalType": "uint256",
          "name": "value",
          "type": "uint256"
        }
      ],
      "name": "Approval",
      "type": "event"
    },
    {
      "anonymous": false,
      "inputs": [
        {
          "indexed": false,
          "internalType": "uint8",
          "name": "version",
          "type": "uint8"
        }
      ],
      "name": "Initialized",
      "type": "event"
    },
    {
      "anonymous": false,
      "inputs": [
        {
          "indexed": true,
          "internalType": "address",
          "name": "previousOwner",
          "type": "address"
        },
        {
          "indexed": true,
          "internalType": "address",
          "name": "newOwner",
          "type": "address"
        }
      ],
      "name": "OwnershipTransferred",
      "type": "event"
    },
    {
      "anonymous": false,
      "inputs": [
        {
          "indexed": false,
          "internalType": "address",
          "name": "account",
          "type": "address"
        }
      ],
      "name": "Paused",
      "type": "event"
    },
    {
      "anonymous": false,
      "inputs": [
        {
          "indexed": false,
          "internalType": "uint256",
          "name": "id",
          "type": "uint256"
        }
      ],
      "name": "Snapshot",
      "type": "event"
    },
    {
      "anonymous": false,
      "inputs": [
        {
          "indexed": true,
          "internalType": "address",
          "name": "from",
          "type": "address"
        },
        {
          "indexed": true,
          "internalType": "address",
          "name": "to",
          "type": "address"
        },
        {
          "indexed": false,
          "internalType": "uint256",
          "name": "value",
          "type": "uint256"
        }
      ],
      "name": "Transfer",
      "type": "event"
    },
    {
      "anonymous": false,
      "inputs": [
        {
          "indexed": false,
          "internalType": "address",
          "name": "account",
          "type": "address"
        }
      ],
      "name": "Unpaused",
      "type": "event"
    },
    {
      "inputs": [
        {
          "internalType": "address",
          "name": "owner",
          "type": "address"
        },
        {
          "internalType": "address",
          "name": "spender",
          "type": "address"
        }
      ],
      "name": "allowance",
      "outputs": [
        {
          "internalType": "uint256",
          "name": "",
          "type": "uint256"
        }
      ],
      "stateMutability": "view",
      "type": "function"
    },
    {
      "inputs": [
        {
          "internalType": "address",
          "name": "spender",
          "type": "address"
        },
        {
          "internalType": "uint256",
          "name": "amount",
          "type": "uint256"
        }
      ],
      "name": "approve",
      "outputs": [
        {
          "internalType": "bool",
          "name": "",
          "type": "bool"
        }
      ],
      "stateMutability": "nonpayable",
      "type": "function"
    },
    {
      "inputs": [
        {
          "internalType": "address",
          "name": "account",
          "type": "address"
        }
      ],
      "name": "balanceOf",
      "outputs": [
        {
          "internalType": "uint256",
          "name": "",
          "type": "uint256"
        }
      ],
      "stateMutability": "view",
      "type": "function"
    },
    {
      "inputs": [
        {
          "internalType": "address",
          "name": "account",
          "type": "address"
        },
        {
          "internalType": "uint256",
          "name": "snapshotId",
          "type": "uint256"
        }
      ],
      "name": "balanceOfAt",
      "outputs": [
        {
          "internalType": "uint256",
          "name": "",
          "type": "uint256"
        }
      ],
      "stateMutability": "view",
      "type": "function"
    },
    {
      "inputs": [
        {
          "internalType": "uint256",
          "name": "amount",
          "type": "uint256"
        }
      ],
      "name": "burn",
      "outputs": [],
      "stateMutability": "nonpayable",
      "type": "function"
    },
    {
      "inputs": [
        {
          "internalType": "address",
          "name": "account",
          "type": "address"
        },
        {
          "internalType": "uint256",
          "name": "amount",
          "type": "uint256"
        }
      ],
      "name": "burnFrom",
      "outputs": [],
      "stateMutability": "nonpayable",
      "type": "function"
    },
    {
      "inputs": [],
      "name": "decimals",
      "outputs": [
        {
          "internalType": "uint8",
          "name": "",
          "type": "uint8"
        }
      ],
      "stateMutability": "view",
      "type": "function"
    },
    {
      "inputs": [
        {
          "internalType": "address",
          "name": "spender",
          "type": "address"
        },
        {
          "internalType": "uint256",
          "name": "subtractedValue",
          "type": "uint256"
        }
      ],
      "name": "decreaseAllowance",
      "outputs": [
        {
          "internalType": "bool",
          "name": "",
          "type": "bool"
        }
      ],
      "stateMutability": "nonpayable",
      "type": "function"
    },
    {
      "inputs": [
        {
          "internalType": "address",
          "name": "spender",
          "type": "address"
        },
        {
          "internalType": "uint256",
          "name": "addedValue",
          "type": "uint256"
        }
      ],
      "name": "increaseAllowance",
      "outputs": [
        {
          "internalType": "bool",
          "name": "",
          "type": "bool"
        }
      ],
      "stateMutability": "nonpayable",
      "type": "function"
    },
    {
      "inputs": [],
      "name": "initialize",
      "outputs": [],
      "stateMutability": "nonpayable",
      "type": "function"
    },
    {
      "inputs": [],
      "name": "name",
      "outputs": [
        {
          "internalType": "string",
          "name": "",
          "type": "string"
        }
      ],
      "stateMutability": "view",
      "type": "function"
    },
    {
      "inputs": [],
      "name": "owner",
      "outputs": [
        {
          "internalType": "address",
          "name": "",
          "type": "address"
        }
      ],
      "stateMutability": "view",
      "type": "function"
    },
    {
      "inputs": [],
      "name": "pause",
      "outputs": [],
      "stateMutability": "nonpayable",
      "type": "function"
    },
    {
      "inputs": [],
      "name": "paused",
      "outputs": [
        {
          "internalType": "bool",
          "name": "",
          "type": "bool"
        }
      ],
      "stateMutability": "view",
      "type": "function"
    },
    {
      "inputs": [
        {
          "internalType": "uint256",
          "name": "amount",
          "type": "uint256"
        }
      ],
      "name": "recoverBNB",
      "outputs": [],
      "stateMutability": "nonpayable",
      "type": "function"
    },
    {
      "inputs": [
        {
          "internalType": "contract IERC20Upgradeable",
          "name": "token",
          "type": "address"
        }
      ],
      "name": "recoverTokens",
      "outputs": [],
      "stateMutability": "nonpayable",
      "type": "function"
    },
    {
      "inputs": [],
      "name": "renounceOwnership",
      "outputs": [],
      "stateMutability": "nonpayable",
      "type": "function"
    },
    {
      "inputs": [],
      "name": "snapshot",
      "outputs": [],
      "stateMutability": "nonpayable",
      "type": "function"
    },
    {
      "inputs": [],
      "name": "symbol",
      "outputs": [
        {
          "internalType": "string",
          "name": "",
          "type": "string"
        }
      ],
      "stateMutability": "view",
      "type": "function"
    },
    {
      "inputs": [],
      "name": "totalSupply",
      "outputs": [
        {
          "internalType": "uint256",
          "name": "",
          "type": "uint256"
        }
      ],
      "stateMutability": "view",
      "type": "function"
    },
    {
      "inputs": [
        {
          "internalType": "uint256",
          "name": "snapshotId",
          "type": "uint256"
        }
      ],
      "name": "totalSupplyAt",
      "outputs": [
        {
          "internalType": "uint256",
          "name": "",
          "type": "uint256"
        }
      ],
      "stateMutability": "view",
      "type": "function"
    },
    {
      "inputs": [
        {
          "internalType": "address",
          "name": "to",
          "type": "address"
        },
        {
          "internalType": "uint256",
          "name": "amount",
          "type": "uint256"
        }
      ],
      "name": "transfer",
      "outputs": [
        {
          "internalType": "bool",
          "name": "",
          "type": "bool"
        }
      ],
      "stateMutability": "nonpayable",
      "type": "function"
    },
    {
      "inputs": [
        {
          "internalType": "address",
          "name": "from",
          "type": "address"
        },
        {
          "internalType": "address",
          "name": "to",
          "type": "address"
        },
        {
          "internalType": "uint256",
          "name": "amount",
          "type": "uint256"
        }
      ],
      "name": "transferFrom",
      "outputs": [
        {
          "internalType": "bool",
          "name": "",
          "type": "bool"
        }
      ],
      "stateMutability": "nonpayable",
      "type": "function"
    },
    {
      "inputs": [
        {
          "internalType": "address",
          "name": "newOwner",
          "type": "address"
        }
      ],
      "name": "transferOwnership",
      "outputs": [],
      "stateMutability": "nonpayable",
      "type": "function"
    },
    {
      "inputs": [],
      "name": "unpause",
      "outputs": [],
      "stateMutability": "nonpayable",
      "type": "function"
    }
  ],
  "bytecode": "0x608060405234801561001057600080fd5b50611b65806100206000396000f3fe608060405234801561001057600080fd5b50600436106101735760003560e01c8063715018a6116100de5780639711715a11610097578063a9059cbb11610071578063a9059cbb146102dd578063dd62ed3e146102f0578063f2fde38b14610303578063f603939b1461031657610173565b80639711715a146102af578063981b24d0146102b7578063a457c2d7146102ca57610173565b8063715018a61461026157806379cc6790146102695780638129fc1c1461027c5780638456cb59146102845780638da5cb5b1461028c57806395d89b41146102a757610173565b8063395093511161013057806339509351146102025780633f4ba83a1461021557806342966c681461021d5780634ee2cd7e146102305780635c975abb1461024357806370a082311461024e57610173565b806306fdde0314610178578063095ea7b31461019657806316114acd146101b957806318160ddd146101ce57806323b872dd146101e0578063313ce567146101f3575b600080fd5b610180610329565b60405161018d919061194d565b60405180910390f35b6101a96101a43660046118b6565b6103bb565b604051901515815260200161018d565b6101cc6101c7366004611822565b6103d5565b005b6035545b60405190815260200161018d565b6101a96101ee366004611876565b610499565b6040516012815260200161018d565b6101a96102103660046118b6565b6104bf565b6101cc6104e1565b6101cc61022b366004611901565b610515565b6101d261023e3660046118b6565b61051f565b60fb5460ff166101a9565b6101d261025c366004611822565b610568565b6101cc610587565b6101cc6102773660046118b6565b6105bb565b6101cc6105d4565b6101cc6106a1565b60c9546040516001600160a01b03909116815260200161018d565b6101806106d3565b6101cc6106e2565b6101d26102c5366004611901565b610714565b6101a96102d83660046118b6565b61073f565b6101a96102eb3660046118b6565b6107c5565b6101d26102fe36600461183e565b6107d3565b6101cc610311366004611822565b6107fe565b6101cc610324366004611901565b610896565b60606036805461033890611ac9565b80601f016020809104026020016040519081016040528092919081815260200182805461036490611ac9565b80156103b15780601f10610386576101008083540402835291602001916103b1565b820191906000526020600020905b81548152906001019060200180831161039457829003601f168201915b5050505050905090565b6000336103c98185856108ed565b60019150505b92915050565b60c9546001600160a01b031633146104085760405162461bcd60e51b81526004016103ff906119ce565b60405180910390fd5b6040516370a0823160e01b81523060048201526104969033906001600160a01b038416906370a082319060240160206040518083038186803b15801561044d57600080fd5b505afa158015610461573d6000803e3d6000fd5b505050506040513d601f19601f820116820180604052508101906104859190611919565b6001600160a01b0384169190610a11565b50565b6000336104a7858285610a68565b6104b2858585610ae2565b60019150505b9392505050565b6000336103c98185856104d283836107d3565b6104dc9190611a4e565b6108ed565b60c9546001600160a01b0316331461050b5760405162461bcd60e51b81526004016103ff906119ce565b610513610cbb565b565b6104963382610d4e565b6001600160a01b038216600090815260976020526040812081908190610546908590610ea8565b915091508161055d5761055885610568565b61055f565b805b95945050505050565b6001600160a01b0381166000908152603360205260409020545b919050565b60c9546001600160a01b031633146105b15760405162461bcd60e51b81526004016103ff906119ce565b6105136000610fad565b6105c6823383610a68565b6105d08282610d4e565b5050565b60006105e06001610fff565b905080156105f8576000805461ff0019166101001790555b61063a60405180604001604052806005815260200164436c69636b60d81b81525060405180604001604052806003815260200162434c4b60e81b815250611084565b6106426110d2565b610659336c3f1bdf10116048a59340000000611102565b8015610496576000805461ff0019169055604051600181527f7f26b83ff96e1f2b6a682f133852f6798a09c465da95921460cefb38474024989060200160405180910390a150565b60c9546001600160a01b031633146106cb5760405162461bcd60e51b81526004016103ff906119ce565b6105136111ee565b60606037805461033890611ac9565b60c9546001600160a01b0316331461070c5760405162461bcd60e51b81526004016103ff906119ce565b610496611269565b6000806000610724846098610ea8565b915091508161073557603554610737565b805b949350505050565b6000338161074d82866107d3565b9050838110156107ad5760405162461bcd60e51b815260206004820152602560248201527f45524332303a2064656372656173656420616c6c6f77616e63652062656c6f77604482015264207a65726f60d81b60648201526084016103ff565b6107ba82868684036108ed565b506001949350505050565b6000336103c9818585610ae2565b6001600160a01b03918216600090815260346020908152604080832093909416825291909152205490565b60c9546001600160a01b031633146108285760405162461bcd60e51b81526004016103ff906119ce565b6001600160a01b03811661088d5760405162461bcd60e51b815260206004820152602660248201527f4f776e61626c653a206e6577206f776e657220697320746865207a65726f206160448201526564647265737360d01b60648201526084016103ff565b61049681610fad565b60c9546001600160a01b031633146108c05760405162461bcd60e51b81526004016103ff906119ce565b604051339082156108fc029083906000818181858888f193505050501580156105d0573d6000803e3d6000fd5b6001600160a01b03831661094f5760405162461bcd60e51b8152602060048201526024808201527f45524332303a20617070726f76652066726f6d20746865207a65726f206164646044820152637265737360e01b60648201526084016103ff565b6001600160a01b0382166109b05760405162461bcd60e51b815260206004820152602260248201527f45524332303a20617070726f766520746f20746865207a65726f206164647265604482015261737360f01b60648201526084016103ff565b6001600160a01b0383811660008181526034602090815260408083209487168084529482529182902085905590518481527f8c5be1e5ebec7d5bd14f71427d1e84f3dd0314c0f7b2291e5b200ac8c7c3b925910160405180910390a3505050565b604080516001600160a01b038416602482015260448082018490528251808303909101815260649091019091526020810180516001600160e01b031663a9059cbb60e01b179052610a639084906112c3565b505050565b6000610a7484846107d3565b90506000198114610adc5781811015610acf5760405162461bcd60e51b815260206004820152601d60248201527f45524332303a20696e73756666696369656e7420616c6c6f77616e636500000060448201526064016103ff565b610adc84848484036108ed565b50505050565b6001600160a01b038316610b465760405162461bcd60e51b815260206004820152602560248201527f45524332303a207472616e736665722066726f6d20746865207a65726f206164604482015264647265737360d81b60648201526084016103ff565b6001600160a01b038216610ba85760405162461bcd60e51b815260206004820152602360248201527f45524332303a207472616e7366657220746f20746865207a65726f206164647260448201526265737360e81b60648201526084016103ff565b610bb3838383611395565b6001600160a01b03831660009081526033602052604090205481811015610c2b5760405162461bcd60e51b815260206004820152602660248201527f45524332303a207472616e7366657220616d6f756e7420657863656564732062604482015265616c616e636560d01b60648201526084016103ff565b6001600160a01b03808516600090815260336020526040808220858503905591851681529081208054849290610c62908490611a4e565b92505081905550826001600160a01b0316846001600160a01b03167fddf252ad1be2c89b69c2b068fc378daa952ba7f163c4a11628f55a4df523b3ef84604051610cae91815260200190565b60405180910390a3610adc565b60fb5460ff16610d045760405162461bcd60e51b815260206004820152601460248201527314185d5cd8589b194e881b9bdd081c185d5cd95960621b60448201526064016103ff565b60fb805460ff191690557f5db9ee0a495bf2e6ff9c91a7834c1ba4fdd244a5e8aa4e537bd38aeae4b073aa335b6040516001600160a01b03909116815260200160405180910390a1565b6001600160a01b038216610dae5760405162461bcd60e51b815260206004820152602160248201527f45524332303a206275726e2066726f6d20746865207a65726f206164647265736044820152607360f81b60648201526084016103ff565b610dba82600083611395565b6001600160a01b03821660009081526033602052604090205481811015610e2e5760405162461bcd60e51b815260206004820152602260248201527f45524332303a206275726e20616d6f756e7420657863656564732062616c616e604482015261636560f01b60648201526084016103ff565b6001600160a01b0383166000908152603360205260408120838303905560358054849290610e5d908490611a86565b90915550506040518281526000906001600160a01b038516907fddf252ad1be2c89b69c2b068fc378daa952ba7f163c4a11628f55a4df523b3ef9060200160405180910390a3610a63565b60008060008411610ef45760405162461bcd60e51b815260206004820152601660248201527504552433230536e617073686f743a20696420697320360541b60448201526064016103ff565b610efc6113e6565b841115610f4b5760405162461bcd60e51b815260206004820152601d60248201527f4552433230536e617073686f743a206e6f6e6578697374656e7420696400000060448201526064016103ff565b6000610f5784866113f6565b8454909150811415610f70576000809250925050610fa6565b6001846001018281548110610f9557634e487b7160e01b600052603260045260246000fd5b906000526020600020015492509250505b9250929050565b60c980546001600160a01b038381166001600160a01b0319831681179093556040519116919082907f8be0079c531659141344cd1fd0a4f28419497f9722a3daafe3b4186f6b6457e090600090a35050565b60008054610100900460ff1615611046578160ff1660011480156110225750303b155b61103e5760405162461bcd60e51b81526004016103ff90611980565b506000610582565b60005460ff80841691161061106d5760405162461bcd60e51b81526004016103ff90611980565b506000805460ff191660ff83161790556001610582565b600054610100900460ff166110ab5760405162461bcd60e51b81526004016103ff90611a03565b81516110be906036906020850190611789565b508051610a63906037906020840190611789565b600054610100900460ff166110f95760405162461bcd60e51b81526004016103ff90611a03565b61051333610fad565b6001600160a01b0382166111585760405162461bcd60e51b815260206004820152601f60248201527f45524332303a206d696e7420746f20746865207a65726f20616464726573730060448201526064016103ff565b61116460008383611395565b80603560008282546111769190611a4e565b90915550506001600160a01b038216600090815260336020526040812080548392906111a3908490611a4e565b90915550506040518181526001600160a01b038316906000907fddf252ad1be2c89b69c2b068fc378daa952ba7f163c4a11628f55a4df523b3ef9060200160405180910390a36105d0565b60fb5460ff16156112345760405162461bcd60e51b815260206004820152601060248201526f14185d5cd8589b194e881c185d5cd95960821b60448201526064016103ff565b60fb805460ff191660011790557f62e78cea01bee320cd4e420270b5ea74000d11b0c9f74754ebdbfc544b05a258610d313390565b6000611279609a80546001019055565b60006112836113e6565b90507f8030e83b04d87bef53480e26263266d6ca66863aa8506aca6f2559d18aa1cb67816040516112b691815260200190565b60405180910390a1905090565b6000611318826040518060400160405280602081526020017f5361666545524332303a206c6f772d6c6576656c2063616c6c206661696c6564815250856001600160a01b03166114d59092919063ffffffff16565b805190915015610a63578080602001905181019061133691906118e1565b610a635760405162461bcd60e51b815260206004820152602a60248201527f5361666545524332303a204552433230206f7065726174696f6e20646964206e6044820152691bdd081cdd58d8d9595960b21b60648201526084016103ff565b60fb5460ff16156113db5760405162461bcd60e51b815260206004820152601060248201526f14185d5cd8589b194e881c185d5cd95960821b60448201526064016103ff565b610a638383836114e4565b60006113f1609a5490565b905090565b8154600090611407575060006103cf565b82546000905b808210156114715760006114218383611531565b90508486828154811061144457634e487b7160e01b600052603260045260246000fd5b9060005260206000200154111561145d5780915061146b565b611468816001611a4e565b92505b5061140d565b6000821180156114b457508385611489600185611a86565b815481106114a757634e487b7160e01b600052603260045260246000fd5b9060005260206000200154145b156114cd576114c4600183611a86565b925050506103cf565b5090506103cf565b6060610737848460008561154c565b6001600160a01b038316611508576114fb8261167d565b6115036116a7565b610a63565b6001600160a01b03821661151f576114fb8361167d565b6115288361167d565b610a638261167d565b60006115406002848418611a66565b6104b890848416611a4e565b6060824710156115ad5760405162461bcd60e51b815260206004820152602660248201527f416464726573733a20696e73756666696369656e742062616c616e636520666f6044820152651c8818d85b1b60d21b60648201526084016103ff565b6001600160a01b0385163b6116045760405162461bcd60e51b815260206004820152601d60248201527f416464726573733a2063616c6c20746f206e6f6e2d636f6e747261637400000060448201526064016103ff565b600080866001600160a01b031685876040516116209190611931565b60006040518083038185875af1925050503d806000811461165d576040519150601f19603f3d011682016040523d82523d6000602084013e611662565b606091505b50915091506116728282866116b5565b979650505050505050565b6001600160a01b0381166000908152609760205260409020610496906116a283610568565b6116ee565b61051360986116a260355490565b606083156116c45750816104b8565b8251156116d45782518084602001fd5b8160405162461bcd60e51b81526004016103ff919061194d565b60006116f86113e6565b90508061170484611738565b1015610a63578254600180820185556000858152602080822090930193909355938401805494850181558252902090910155565b805460009061174957506000610582565b8154829061175990600190611a86565b8154811061177757634e487b7160e01b600052603260045260246000fd5b90600052602060002001549050610582565b82805461179590611ac9565b90600052602060002090601f0160209004810192826117b757600085556117fd565b82601f106117d057805160ff19168380011785556117fd565b828001600101855582156117fd579182015b828111156117fd5782518255916020019190600101906117e2565b5061180992915061180d565b5090565b5b80821115611809576000815560010161180e565b600060208284031215611833578081fd5b81356104b881611b1a565b60008060408385031215611850578081fd5b823561185b81611b1a565b9150602083013561186b81611b1a565b809150509250929050565b60008060006060848603121561188a578081fd5b833561189581611b1a565b925060208401356118a581611b1a565b929592945050506040919091013590565b600080604083850312156118c8578182fd5b82356118d381611b1a565b946020939093013593505050565b6000602082840312156118f2578081fd5b815180151581146104b8578182fd5b600060208284031215611912578081fd5b5035919050565b60006020828403121561192a578081fd5b5051919050565b60008251611943818460208701611a9d565b9190910192915050565b600060208252825180602084015261196c816040850160208701611a9d565b601f01601f19169190910160400192915050565b6020808252602e908201527f496e697469616c697a61626c653a20636f6e747261637420697320616c72656160408201526d191e481a5b9a5d1a585b1a5e995960921b606082015260800190565b6020808252818101527f4f776e61626c653a2063616c6c6572206973206e6f7420746865206f776e6572604082015260600190565b6020808252602b908201527f496e697469616c697a61626c653a20636f6e7472616374206973206e6f74206960408201526a6e697469616c697a696e6760a81b606082015260800190565b60008219821115611a6157611a61611b04565b500190565b600082611a8157634e487b7160e01b81526012600452602481fd5b500490565b600082821015611a9857611a98611b04565b500390565b60005b83811015611ab8578181015183820152602001611aa0565b83811115610adc5750506000910152565b600281046001821680611add57607f821691505b60208210811415611afe57634e487b7160e01b600052602260045260246000fd5b50919050565b634e487b7160e01b600052601160045260246000fd5b6001600160a01b038116811461049657600080fdfea26469706673582212207a8d1b20b4b554b7d6e1bcf2d3744b622eacba7e136ab9021c7bdcbf321cc9da64736f6c63430008020033",
  "linkReferences": {},
  "deployedLinkReferences": {}
}