{
  "_format": "hh-sol-artifact-1",
  "contractName": "BEP20",
  "sourceName": "contracts/baby.sol",
  "abi": [
    {
      "inputs": [
        {
          "internalType": "string",
          "name": "name_",
          "type": "string"
        },
        {
          "internalType": "string",
          "name": "symbol_",
          "type": "string"
        },
        {
          "internalType": "uint256",
          "name": "initialBalance",
          "type": "uint256"
        },
        {
          "internalType": "address",
          "name": "_owner",
          "type": "address"
        }
      ],
      "stateMutability": "nonpayable",
      "type": "constructor"
    },
    {
      "anonymous": false,
      "inputs": [
        {
          "indexed": true,
          "internalType": "address",
          "name": "owner",
          "type": "address"
        },
        {
          "indexed": true,
          "internalType": "address",
          "name": "spender",
          "type": "address"
        },
        {
          "indexed": false,
          "internalType": "uint256",
          "name": "value",
          "type": "uint256"
        }
      ],
      "name": "Approval",
      "type": "event"
    },
    {
      "anonymous": false,
      "inputs": [
        {
          "indexed": true,
          "internalType": "address",
          "name": "to",
          "type": "address"
        },
        {
          "indexed": false,
          "internalType": "uint256",
          "name": "amount",
          "type": "uint256"
        }
      ],
      "name": "Burn",
      "type": "event"
    },
    {
      "anonymous": false,
      "inputs": [
        {
          "indexed": true,
          "internalType": "address",
          "name": "to",
          "type": "address"
        },
        {
          "indexed": false,
          "internalType": "uint256",
          "name": "amount",
          "type": "uint256"
        }
      ],
      "name": "Mint",
      "type": "event"
    },
    {
      "anonymous": false,
      "inputs": [
        {
          "indexed": true,
          "internalType": "address",
          "name": "previousOwner",
          "type": "address"
        },
        {
          "indexed": true,
          "internalType": "address",
          "name": "newOwner",
          "type": "address"
        }
      ],
      "name": "OwnershipTransferred",
      "type": "event"
    },
    {
      "anonymous": false,
      "inputs": [
        {
          "indexed": true,
          "internalType": "address",
          "name": "from",
          "type": "address"
        },
        {
          "indexed": true,
          "internalType": "address",
          "name": "to",
          "type": "address"
        },
        {
          "indexed": false,
          "internalType": "uint256",
          "name": "value",
          "type": "uint256"
        }
      ],
      "name": "Transfer",
      "type": "event"
    },
    {
      "inputs": [
        {
          "internalType": "address",
          "name": "",
          "type": "address"
        }
      ],
      "name": "ICOLockedAmount",
      "outputs": [
        {
          "internalType": "uint256",
          "name": "",
          "type": "uint256"
        }
      ],
      "stateMutability": "view",
      "type": "function"
    },
    {
      "inputs": [
        {
          "internalType": "address",
          "name": "",
          "type": "address"
        }
      ],
      "name": "LockedAmount",
      "outputs": [
        {
          "internalType": "uint256",
          "name": "",
          "type": "uint256"
        }
      ],
      "stateMutability": "view",
      "type": "function"
    },
    {
      "inputs": [
        {
          "internalType": "address",
          "name": "",
          "type": "address"
        }
      ],
      "name": "PreICOLockedAmount",
      "outputs": [
        {
          "internalType": "uint256",
          "name": "",
          "type": "uint256"
        }
      ],
      "stateMutability": "view",
      "type": "function"
    },
    {
      "inputs": [],
      "name": "TotalICOLockedAmount",
      "outputs": [
        {
          "internalType": "uint256",
          "name": "",
          "type": "uint256"
        }
      ],
      "stateMutability": "view",
      "type": "function"
    },
    {
      "inputs": [],
      "name": "TotalLockedAmount",
      "outputs": [
        {
          "internalType": "uint256",
          "name": "",
          "type": "uint256"
        }
      ],
      "stateMutability": "view",
      "type": "function"
    },
    {
      "inputs": [],
      "name": "TotalPreICOLockedAmount",
      "outputs": [
        {
          "internalType": "uint256",
          "name": "",
          "type": "uint256"
        }
      ],
      "stateMutability": "view",
      "type": "function"
    },
    {
      "inputs": [],
      "name": "_baseSupply",
      "outputs": [
        {
          "internalType": "uint256",
          "name": "",
          "type": "uint256"
        }
      ],
      "stateMutability": "view",
      "type": "function"
    },
    {
      "inputs": [
        {
          "internalType": "address",
          "name": "owner",
          "type": "address"
        },
        {
          "internalType": "address",
          "name": "spender",
          "type": "address"
        }
      ],
      "name": "allowance",
      "outputs": [
        {
          "internalType": "uint256",
          "name": "",
          "type": "uint256"
        }
      ],
      "stateMutability": "view",
      "type": "function"
    },
    {
      "inputs": [
        {
          "internalType": "address",
          "name": "spender",
          "type": "address"
        },
        {
          "internalType": "uint256",
          "name": "amount",
          "type": "uint256"
        }
      ],
      "name": "approve",
      "outputs": [
        {
          "internalType": "bool",
          "name": "",
          "type": "bool"
        }
      ],
      "stateMutability": "nonpayable",
      "type": "function"
    },
    {
      "inputs": [
        {
          "internalType": "address",
          "name": "account",
          "type": "address"
        }
      ],
      "name": "balanceOf",
      "outputs": [
        {
          "internalType": "uint256",
          "name": "",
          "type": "uint256"
        }
      ],
      "stateMutability": "view",
      "type": "function"
    },
    {
      "inputs": [
        {
          "internalType": "uint256",
          "name": "amount",
          "type": "uint256"
        }
      ],
      "name": "burn",
      "outputs": [],
      "stateMutability": "nonpayable",
      "type": "function"
    },
    {
      "inputs": [
        {
          "internalType": "address",
          "name": "account",
          "type": "address"
        },
        {
          "internalType": "uint256",
          "name": "amount",
          "type": "uint256"
        }
      ],
      "name": "burnFrom",
      "outputs": [],
      "stateMutability": "nonpayable",
      "type": "function"
    },
    {
      "inputs": [],
      "name": "burnTotal",
      "outputs": [
        {
          "internalType": "uint256",
          "name": "",
          "type": "uint256"
        }
      ],
      "stateMutability": "view",
      "type": "function"
    },
    {
      "inputs": [],
      "name": "burningFinished",
      "outputs": [
        {
          "internalType": "bool",
          "name": "",
          "type": "bool"
        }
      ],
      "stateMutability": "view",
      "type": "function"
    },
    {
      "inputs": [
        {
          "internalType": "address",
          "name": "account",
          "type": "address"
        }
      ],
      "name": "clearedBalanceOf",
      "outputs": [
        {
          "internalType": "uint256",
          "name": "",
          "type": "uint256"
        }
      ],
      "stateMutability": "view",
      "type": "function"
    },
    {
      "inputs": [],
      "name": "crowdSale",
      "outputs": [
        {
          "internalType": "address",
          "name": "",
          "type": "address"
        }
      ],
      "stateMutability": "view",
      "type": "function"
    },
    {
      "inputs": [],
      "name": "decimals",
      "outputs": [
        {
          "internalType": "uint8",
          "name": "",
          "type": "uint8"
        }
      ],
      "stateMutability": "view",
      "type": "function"
    },
    {
      "inputs": [
        {
          "internalType": "address",
          "name": "spender",
          "type": "address"
        },
        {
          "internalType": "uint256",
          "name": "subtractedValue",
          "type": "uint256"
        }
      ],
      "name": "decreaseAllowance",
      "outputs": [
        {
          "internalType": "bool",
          "name": "",
          "type": "bool"
        }
      ],
      "stateMutability": "nonpayable",
      "type": "function"
    },
    {
      "inputs": [],
      "name": "getOwner",
      "outputs": [
        {
          "internalType": "address",
          "name": "",
          "type": "address"
        }
      ],
      "stateMutability": "view",
      "type": "function"
    },
    {
      "inputs": [
        {
          "internalType": "address",
          "name": "spender",
          "type": "address"
        },
        {
          "internalType": "uint256",
          "name": "addedValue",
          "type": "uint256"
        }
      ],
      "name": "increaseAllowance",
      "outputs": [
        {
          "internalType": "bool",
          "name": "",
          "type": "bool"
        }
      ],
      "stateMutability": "nonpayable",
      "type": "function"
    },
    {
      "inputs": [
        {
          "internalType": "address",
          "name": "_to",
          "type": "address"
        },
        {
          "internalType": "uint256",
          "name": "_amount",
          "type": "uint256"
        }
      ],
      "name": "mint",
      "outputs": [
        {
          "internalType": "bool",
          "name": "",
          "type": "bool"
        }
      ],
      "stateMutability": "nonpayable",
      "type": "function"
    },
    {
      "inputs": [],
      "name": "mintTotal",
      "outputs": [
        {
          "internalType": "uint256",
          "name": "",
          "type": "uint256"
        }
      ],
      "stateMutability": "view",
      "type": "function"
    },
    {
      "inputs": [],
      "name": "mintingFinished",
      "outputs": [
        {
          "internalType": "bool",
          "name": "",
          "type": "bool"
        }
      ],
      "stateMutability": "view",
      "type": "function"
    },
    {
      "inputs": [],
      "name": "name",
      "outputs": [
        {
          "internalType": "string",
          "name": "",
          "type": "string"
        }
      ],
      "stateMutability": "view",
      "type": "function"
    },
    {
      "inputs": [],
      "name": "owner",
      "outputs": [
        {
          "internalType": "address",
          "name": "",
          "type": "address"
        }
      ],
      "stateMutability": "view",
      "type": "function"
    },
    {
      "inputs": [],
      "name": "preICOSale",
      "outputs": [
        {
          "internalType": "address",
          "name": "",
          "type": "address"
        }
      ],
      "stateMutability": "view",
      "type": "function"
    },
    {
      "inputs": [],
      "name": "renounceOwnership",
      "outputs": [],
      "stateMutability": "nonpayable",
      "type": "function"
    },
    {
      "inputs": [
        {
          "internalType": "address",
          "name": "_crowdSale",
          "type": "address"
        }
      ],
      "name": "setCrowdSale",
      "outputs": [
        {
          "internalType": "bool",
          "name": "",
          "type": "bool"
        }
      ],
      "stateMutability": "nonpayable",
      "type": "function"
    },
    {
      "inputs": [
        {
          "internalType": "address",
          "name": "_preICOSale",
          "type": "address"
        }
      ],
      "name": "setPreICOSale",
      "outputs": [
        {
          "internalType": "bool",
          "name": "",
          "type": "bool"
        }
      ],
      "stateMutability": "nonpayable",
      "type": "function"
    },
    {
      "inputs": [],
      "name": "symbol",
      "outputs": [
        {
          "internalType": "string",
          "name": "",
          "type": "string"
        }
      ],
      "stateMutability": "view",
      "type": "function"
    },
    {
      "inputs": [],
      "name": "totalSupply",
      "outputs": [
        {
          "internalType": "uint256",
          "name": "",
          "type": "uint256"
        }
      ],
      "stateMutability": "view",
      "type": "function"
    },
    {
      "inputs": [
        {
          "internalType": "address",
          "name": "recipient",
          "type": "address"
        },
        {
          "internalType": "uint256",
          "name": "amount",
          "type": "uint256"
        }
      ],
      "name": "transfer",
      "outputs": [
        {
          "internalType": "bool",
          "name": "",
          "type": "bool"
        }
      ],
      "stateMutability": "nonpayable",
      "type": "function"
    },
    {
      "inputs": [
        {
          "internalType": "address",
          "name": "sender",
          "type": "address"
        },
        {
          "internalType": "address",
          "name": "recipient",
          "type": "address"
        },
        {
          "internalType": "uint256",
          "name": "amount",
          "type": "uint256"
        }
      ],
      "name": "transferByCrowdSaler",
      "outputs": [
        {
          "internalType": "bool",
          "name": "",
          "type": "bool"
        }
      ],
      "stateMutability": "nonpayable",
      "type": "function"
    },
    {
      "inputs": [
        {
          "internalType": "address",
          "name": "sender",
          "type": "address"
        },
        {
          "internalType": "address",
          "name": "recipient",
          "type": "address"
        },
        {
          "internalType": "uint256",
          "name": "amount",
          "type": "uint256"
        }
      ],
      "name": "transferFrom",
      "outputs": [
        {
          "internalType": "bool",
          "name": "",
          "type": "bool"
        }
      ],
      "stateMutability": "nonpayable",
      "type": "function"
    },
    {
      "inputs": [
        {
          "internalType": "address",
          "name": "newOwner",
          "type": "address"
        }
      ],
      "name": "transferOwnership",
      "outputs": [],
      "stateMutability": "nonpayable",
      "type": "function"
    },
    {
      "inputs": [
        {
          "internalType": "address",
          "name": "userAddress",
          "type": "address"
        },
        {
          "internalType": "uint256",
          "name": "amount",
          "type": "uint256"
        },
        {
          "internalType": "uint256",
          "name": "addOrSub",
          "type": "uint256"
        }
      ],
      "name": "updateLockedAmount",
      "outputs": [
        {
          "internalType": "bool",
          "name": "",
          "type": "bool"
        }
      ],
      "stateMutability": "nonpayable",
      "type": "function"
    }
  ],
  "bytecode": "0x6080604052600f805460ff1990811690915560006010819055601180549092169091556012553480156200003257600080fd5b5060405162001b0538038062001b058339810160408190526200005591620002e8565b600080546001600160a01b031916339081178255604051909182917f8be0079c531659141344cd1fd0a4f28419497f9722a3daafe3b4186f6b6457e0908290a35060008211620000eb5760405162461bcd60e51b815260206004820181905260248201527f4550495842455032303a20737570706c792063616e6e6f74206265207a65726f604482015260640160405180910390fd5b8351620001009060059060208701906200018f565b508251620001169060069060208601906200018f565b506007805460ff191660121790556200013882670de0b6b3a764000062000394565b6003556200014f82670de0b6b3a764000062000394565b6004556003546001600160a01b038216600090815260016020526040812080549091906200017f90849062000379565b909155506200041f945050505050565b8280546200019d90620003b6565b90600052602060002090601f016020900481019282620001c157600085556200020c565b82601f10620001dc57805160ff19168380011785556200020c565b828001600101855582156200020c579182015b828111156200020c578251825591602001919060010190620001ef565b506200021a9291506200021e565b5090565b5b808211156200021a57600081556001016200021f565b600082601f83011262000246578081fd5b81516001600160401b038082111562000263576200026362000409565b604051601f8301601f19908116603f011681019082821181831017156200028e576200028e62000409565b81604052838152602092508683858801011115620002aa578485fd5b8491505b83821015620002cd5785820183015181830184015290820190620002ae565b83821115620002de57848385830101525b9695505050505050565b60008060008060808587031215620002fe578384fd5b84516001600160401b038082111562000315578586fd5b620003238883890162000235565b9550602087015191508082111562000339578485fd5b50620003488782880162000235565b60408701516060880151919550935090506001600160a01b03811681146200036e578182fd5b939692955090935050565b600082198211156200038f576200038f620003f3565b500190565b6000816000190483118215151615620003b157620003b1620003f3565b500290565b600281046001821680620003cb57607f821691505b60208210811415620003ed57634e487b7160e01b600052602260045260246000fd5b50919050565b634e487b7160e01b600052601160045260246000fd5b634e487b7160e01b600052604160045260246000fd5b6116d6806200042f6000396000f3fe608060405234801561001057600080fd5b506004361061021c5760003560e01c806370a0823111610125578063a457c2d7116100ad578063bca63e501161007c578063bca63e5014610471578063dd62ed3e1461047a578063e8c287ba146104b3578063f2fde38b146104bc578063f4b5cbc4146104cf5761021c565b8063a457c2d714610418578063a9059cbb1461042b578063acf81da41461043e578063b92b99f41461045e5761021c565b806379cc6790116100f457806379cc6790146103cc578063858232f1146103df578063893d20e8146103ff5780638da5cb5b146103ff57806395d89b41146104105761021c565b806370a0823114610386578063715018a6146103995780637770bd15146103a1578063792bac1e146103b95761021c565b80632d58d03d116101a857806340c10f191161017757806340c10f191461033957806342966c681461034c5780634de86ec9146103615780634f2fe1e61461036a5780636491315f1461037d5761021c565b80632d58d03d146102c6578063313ce567146102e65780633338df42146102fb57806339509351146103265761021c565b80630d8cbbd4116101ef5780630d8cbbd41461027857806310dc97c01461029957806318160ddd146102a257806323b872dd146102aa57806325deba5a146102bd5761021c565b806305d1a9461461022157806305d2035b1461024357806306fdde0314610250578063095ea7b314610265575b600080fd5b60115461022e9060ff1681565b60405190151581526020015b60405180910390f35b600f5461022e9060ff1681565b6102586104e2565b60405161023a9190611598565b61022e610273366004611525565b610574565b61028b610286366004611497565b61058a565b60405190815260200161023a565b61028b60125481565b60035461028b565b61022e6102b83660046114ea565b6105a9565b61028b600a5481565b61028b6102d4366004611497565b600d6020526000908152604090205481565b60075460405160ff909116815260200161023a565b60085461030e906001600160a01b031681565b6040516001600160a01b03909116815260200161023a565b61022e610334366004611525565b61065d565b61022e610347366004611525565b610694565b61035f61035a366004611580565b610880565b005b61028b60045481565b61022e6103783660046114ea565b61088d565b61028b600c5481565b61028b610394366004611497565b61093b565b61035f61096f565b60075461030e9061010090046001600160a01b031681565b61022e6103c736600461154e565b6109e3565b61035f6103da366004611525565b610c91565b61028b6103ed366004611497565b60096020526000908152604090205481565b6000546001600160a01b031661030e565b610258610d2f565b61022e610426366004611525565b610d3e565b61022e610439366004611525565b610dcf565b61028b61044c366004611497565b600b6020526000908152604090205481565b61022e61046c366004611497565b610ddc565b61028b60105481565b61028b6104883660046114b8565b6001600160a01b03918216600090815260026020908152604080832093909416825291909152205490565b61028b600e5481565b61035f6104ca366004611497565b610e2c565b61022e6104dd366004611497565b610f16565b6060600580546104f19061164f565b80601f016020809104026020016040519081016040528092919081815260200182805461051d9061164f565b801561056a5780601f1061053f5761010080835404028352916020019161056a565b820191906000526020600020905b81548152906001019060200180831161054d57829003601f168201915b5050505050905090565b6000610581338484610f6b565b50600192915050565b6001600160a01b0381166000908152600160205260409020545b919050565b6001600160a01b0383166000908152600260209081526040808320338452909152812054828110156106335760405162461bcd60e51b815260206004820152602860248201527f42455032303a207472616e7366657220616d6f756e74206578636565647320616044820152676c6c6f77616e636560c01b60648201526084015b60405180910390fd5b61064785336106428685611638565b610f6b565b610652858585611090565b506001949350505050565b3360008181526002602090815260408083206001600160a01b03871684529091528120549091610581918590610642908690611620565b600080546001600160a01b031633146106fe5760405162461bcd60e51b815260206004820152602660248201527f596f7520646f206e6f74206861766520746865207065726d697373696f6e20746044820152651bc81b5a5b9d60d21b606482015260840161062a565b600f5460ff16156107455760405162461bcd60e51b8152602060048201526011602482015270135a5b9d1a5b99c81a5cc818db1bdcd959607a1b604482015260640161062a565b6001600160a01b03831661079b5760405162461bcd60e51b815260206004820152601f60248201527f42455032303a206d696e7420746f20746865207a65726f206164647265737300604482015260640161062a565b81601060008282546107ad9190611620565b90915550506001600160a01b038316600090815260016020526040812080548492906107da908490611620565b9250508190555081600360008282546107f39190611620565b90915550506040518281526001600160a01b038416907f0f6798a560793a54c3bcfe86a93cde1e73087d944c0ea20544137d41213968859060200160405180910390a26040518281526001600160a01b038416906000907fddf252ad1be2c89b69c2b068fc378daa952ba7f163c4a11628f55a4df523b3ef9060200160405180910390a350600192915050565b61088a3382611268565b50565b60075460009061010090046001600160a01b0316331480156108be575060075461010090046001600160a01b031615155b806108e857506008546001600160a01b0316331480156108e857506008546001600160a01b031615155b6109265760405162461bcd60e51b815260206004820152600f60248201526e4e6f7420617574686f72697a65642160881b604482015260640161062a565b610931848484611090565b5060019392505050565b6001600160a01b03811660009081526009602090815260408083205460019092528220546109699190611620565b92915050565b6000546001600160a01b031633146109995760405162461bcd60e51b815260040161062a906115eb565b600080546040516001600160a01b03909116907f8be0079c531659141344cd1fd0a4f28419497f9722a3daafe3b4186f6b6457e0908390a3600080546001600160a01b0319169055565b60075460009061010090046001600160a01b031633148015610a14575060075461010090046001600160a01b031615155b80610a3e57506008546001600160a01b031633148015610a3e57506008546001600160a01b031615155b610a7c5760405162461bcd60e51b815260206004820152600f60248201526e4e6f7420617574686f72697a65642160881b604482015260640161062a565b8160011415610b89576001600160a01b03841660009081526009602052604081208054859290610aad908490611620565b9250508190555082600a6000828254610ac69190611620565b90915550506008546001600160a01b0316331415610b25576001600160a01b0384166000908152600b602052604081208054859290610b06908490611620565b9250508190555082600c6000828254610b1f9190611620565b90915550505b60075461010090046001600160a01b0316331415610b84576001600160a01b0384166000908152600d602052604081208054859290610b65908490611620565b9250508190555082600e6000828254610b7e9190611620565b90915550505b610931565b6001600160a01b03841660009081526009602052604081208054859290610bb1908490611638565b9250508190555082600a6000828254610bca9190611638565b90915550506008546001600160a01b0316331415610c29576001600160a01b0384166000908152600b602052604081208054859290610c0a908490611638565b9250508190555082600c6000828254610c239190611638565b90915550505b60075461010090046001600160a01b0316331415610931576001600160a01b0384166000908152600d602052604081208054859290610c69908490611638565b9250508190555082600e6000828254610c829190611638565b90915550505060019392505050565b6001600160a01b038216600090815260026020908152604080832033845290915290205481811015610d115760405162461bcd60e51b8152602060048201526024808201527f42455032303a206275726e20616d6f756e74206578636565647320616c6c6f77604482015263616e636560e01b606482015260840161062a565b610d2083336106428585611638565b610d2a8383611268565b505050565b6060600680546104f19061164f565b3360009081526002602090815260408083206001600160a01b038616845290915281205482811015610dc05760405162461bcd60e51b815260206004820152602560248201527f42455032303a2064656372656173656420616c6c6f77616e63652062656c6f77604482015264207a65726f60d81b606482015260840161062a565b61093133856106428685611638565b6000610581338484611090565b600080546001600160a01b03163314610e075760405162461bcd60e51b815260040161062a906115eb565b50600880546001600160a01b0383166001600160a01b03199091161790556001919050565b6000546001600160a01b03163314610e565760405162461bcd60e51b815260040161062a906115eb565b6001600160a01b038116610ebb5760405162461bcd60e51b815260206004820152602660248201527f4f776e61626c653a206e6577206f776e657220697320746865207a65726f206160448201526564647265737360d01b606482015260840161062a565b600080546040516001600160a01b03808516939216917f8be0079c531659141344cd1fd0a4f28419497f9722a3daafe3b4186f6b6457e091a3600080546001600160a01b0319166001600160a01b0392909216919091179055565b600080546001600160a01b03163314610f415760405162461bcd60e51b815260040161062a906115eb565b50600780546001600160a01b03831661010002610100600160a81b03199091161790556001919050565b6001600160a01b038316610fcd5760405162461bcd60e51b8152602060048201526024808201527f42455032303a20617070726f76652066726f6d20746865207a65726f206164646044820152637265737360e01b606482015260840161062a565b6001600160a01b03821661102e5760405162461bcd60e51b815260206004820152602260248201527f42455032303a20617070726f766520746f20746865207a65726f206164647265604482015261737360f01b606482015260840161062a565b6001600160a01b0383811660008181526002602090815260408083209487168084529482529182902085905590518481527f8c5be1e5ebec7d5bd14f71427d1e84f3dd0314c0f7b2291e5b200ac8c7c3b92591015b60405180910390a3505050565b6001600160a01b0383166110f45760405162461bcd60e51b815260206004820152602560248201527f42455032303a207472616e736665722066726f6d20746865207a65726f206164604482015264647265737360d81b606482015260840161062a565b6001600160a01b0382166111565760405162461bcd60e51b815260206004820152602360248201527f42455032303a207472616e7366657220746f20746865207a65726f206164647260448201526265737360e81b606482015260840161062a565b6001600160a01b038316600090815260016020526040902054818110156111ce5760405162461bcd60e51b815260206004820152602660248201527f42455032303a207472616e7366657220616d6f756e7420657863656564732062604482015265616c616e636560d01b606482015260840161062a565b6111d88282611638565b6001600160a01b03808616600090815260016020526040808220939093559085168152908120805484929061120e908490611620565b92505081905550826001600160a01b0316846001600160a01b03167fddf252ad1be2c89b69c2b068fc378daa952ba7f163c4a11628f55a4df523b3ef8460405161125a91815260200190565b60405180910390a350505050565b6001600160a01b0382166112c85760405162461bcd60e51b815260206004820152602160248201527f42455032303a206275726e2066726f6d20746865207a65726f206164647265736044820152607360f81b606482015260840161062a565b806003546112d69190611638565b600454111561133c5760405162461bcd60e51b815260206004820152602c60248201527f546f74616c20737570706c792063616e206e6f742062656c6f7720746865206260448201526b61736520737570706c79202160a01b606482015260840161062a565b806012600082825461134e9190611620565b90915550506001600160a01b038216600090815260016020526040902054818110156113c75760405162461bcd60e51b815260206004820152602260248201527f42455032303a206275726e20616d6f756e7420657863656564732062616c616e604482015261636560f01b606482015260840161062a565b6113d18282611638565b6001600160a01b038416600090815260016020526040812091909155600380548492906113ff908490611638565b90915550506040518281526001600160a01b038416907fcc16f5dbb4873280815c1ee09dbd06736cffcc184412cf7a71a0fdb75d397ca59060200160405180910390a26040518281526000906001600160a01b038516907fddf252ad1be2c89b69c2b068fc378daa952ba7f163c4a11628f55a4df523b3ef90602001611083565b80356001600160a01b03811681146105a457600080fd5b6000602082840312156114a8578081fd5b6114b182611480565b9392505050565b600080604083850312156114ca578081fd5b6114d383611480565b91506114e160208401611480565b90509250929050565b6000806000606084860312156114fe578081fd5b61150784611480565b925061151560208501611480565b9150604084013590509250925092565b60008060408385031215611537578182fd5b61154083611480565b946020939093013593505050565b600080600060608486031215611562578283fd5b61156b84611480565b95602085013595506040909401359392505050565b600060208284031215611591578081fd5b5035919050565b6000602080835283518082850152825b818110156115c4578581018301518582016040015282016115a8565b818111156115d55783604083870101525b50601f01601f1916929092016040019392505050565b6020808252818101527f4f776e61626c653a2063616c6c6572206973206e6f7420746865206f776e6572604082015260600190565b600082198211156116335761163361168a565b500190565b60008282101561164a5761164a61168a565b500390565b60028104600182168061166357607f821691505b6020821081141561168457634e487b7160e01b600052602260045260246000fd5b50919050565b634e487b7160e01b600052601160045260246000fdfea2646970667358221220324b6d71e426256559ab14303aff446edf185b9bd9f819bef52846884d05f38064736f6c63430008020033",
  "linkReferences": {},
  "deployedLinkReferences": {}
}