{
  "_format": "hh-sol-artifact-1",
  "contractName": "PreICOSale",
  "sourceName": "contracts/baby.sol",
  "abi": [
    {
      "inputs": [
        {
          "internalType": "address",
          "name": "_EPIXTokenAddress",
          "type": "address"
        },
        {
          "internalType": "address",
          "name": "_PreICOOwner",
          "type": "address"
        }
      ],
      "stateMutability": "nonpayable",
      "type": "constructor"
    },
    {
      "anonymous": false,
      "inputs": [
        {
          "indexed": false,
          "internalType": "address",
          "name": "userAddress",
          "type": "address"
        },
        {
          "indexed": false,
          "internalType": "uint256",
          "name": "lockedId",
          "type": "uint256"
        },
        {
          "indexed": false,
          "internalType": "string",
          "name": "_id",
          "type": "string"
        }
      ],
      "name": "UnlockedEvent",
      "type": "event"
    },
    {
      "inputs": [],
      "name": "EPIX_Contract",
      "outputs": [
        {
          "internalType": "contract EPIXBEP20",
          "name": "",
          "type": "address"
        }
      ],
      "stateMutability": "view",
      "type": "function"
    },
    {
      "inputs": [],
      "name": "LockingCounter",
      "outputs": [
        {
          "internalType": "uint256",
          "name": "",
          "type": "uint256"
        }
      ],
      "stateMutability": "view",
      "type": "function"
    },
    {
      "inputs": [
        {
          "internalType": "string",
          "name": "",
          "type": "string"
        }
      ],
      "name": "LockingIds",
      "outputs": [
        {
          "internalType": "uint256",
          "name": "",
          "type": "uint256"
        }
      ],
      "stateMutability": "view",
      "type": "function"
    },
    {
      "inputs": [],
      "name": "LockingLimit",
      "outputs": [
        {
          "internalType": "uint256",
          "name": "",
          "type": "uint256"
        }
      ],
      "stateMutability": "view",
      "type": "function"
    },
    {
      "inputs": [],
      "name": "PreICOOwner",
      "outputs": [
        {
          "internalType": "address",
          "name": "",
          "type": "address"
        }
      ],
      "stateMutability": "view",
      "type": "function"
    },
    {
      "inputs": [
        {
          "internalType": "address",
          "name": "",
          "type": "address"
        },
        {
          "internalType": "uint256",
          "name": "",
          "type": "uint256"
        }
      ],
      "name": "UserPreSalePurchasedInfo",
      "outputs": [
        {
          "internalType": "string",
          "name": "id",
          "type": "string"
        },
        {
          "internalType": "uint256",
          "name": "lockedAmount",
          "type": "uint256"
        },
        {
          "internalType": "uint256",
          "name": "unlockedAmount",
          "type": "uint256"
        },
        {
          "internalType": "uint256",
          "name": "stakingAt",
          "type": "uint256"
        },
        {
          "internalType": "uint256",
          "name": "unstakingAt",
          "type": "uint256"
        },
        {
          "internalType": "enum PreICOSale.preICOSalelockStatusType",
          "name": "status",
          "type": "uint8"
        },
        {
          "internalType": "uint256",
          "name": "updatedAt",
          "type": "uint256"
        }
      ],
      "stateMutability": "view",
      "type": "function"
    },
    {
      "inputs": [
        {
          "internalType": "uint256",
          "name": "_lockingLimit",
          "type": "uint256"
        }
      ],
      "name": "changeLockingLimit",
      "outputs": [],
      "stateMutability": "nonpayable",
      "type": "function"
    },
    {
      "inputs": [
        {
          "internalType": "address",
          "name": "userAddress",
          "type": "address"
        }
      ],
      "name": "getUserLockedInvestmentCount",
      "outputs": [
        {
          "internalType": "uint256",
          "name": "",
          "type": "uint256"
        }
      ],
      "stateMutability": "view",
      "type": "function"
    },
    {
      "inputs": [
        {
          "internalType": "address[]",
          "name": "userAddresses",
          "type": "address[]"
        },
        {
          "internalType": "uint256[]",
          "name": "amounts",
          "type": "uint256[]"
        },
        {
          "internalType": "uint256[]",
          "name": "_stakingsAt",
          "type": "uint256[]"
        },
        {
          "internalType": "uint256[]",
          "name": "_unstakingsAt",
          "type": "uint256[]"
        },
        {
          "internalType": "uint256",
          "name": "totalAmount",
          "type": "uint256"
        },
        {
          "internalType": "string[]",
          "name": "ids",
          "type": "string[]"
        }
      ],
      "name": "makePreSaleICOLocking",
      "outputs": [],
      "stateMutability": "payable",
      "type": "function"
    },
    {
      "inputs": [
        {
          "internalType": "string",
          "name": "_id",
          "type": "string"
        },
        {
          "internalType": "address",
          "name": "userAddress",
          "type": "address"
        },
        {
          "internalType": "uint256",
          "name": "toBeUnlockAmount",
          "type": "uint256"
        }
      ],
      "name": "makeUnlocking",
      "outputs": [],
      "stateMutability": "payable",
      "type": "function"
    }
  ],
  "bytecode": "0x6080604052601460025560006004553480156200001b57600080fd5b5060405162001aec38038062001aec8339810160408190526200003e916200008d565b600080546001600160a01b039384166001600160a01b03199182161790915560018054929093169116179055620000c4565b80516001600160a01b03811681146200008857600080fd5b919050565b60008060408385031215620000a0578182fd5b620000ab8362000070565b9150620000bb6020840162000070565b90509250929050565b611a1880620000d46000396000f3fe6080604052600436106100915760003560e01c80638ef09ff7116100595780638ef09ff71461017a578063aa8a0ad414610190578063d5629ac8146101b0578063f2d76943146101e3578063f5c6216c1461020357610091565b8063014aae4c1461009657806321c3fddf146100d35780633b5f82b5146101175780634ccce5c41461012d57806374e6349c14610165575b600080fd5b3480156100a257600080fd5b506000546100b6906001600160a01b031681565b6040516001600160a01b0390911681526020015b60405180910390f35b3480156100df57600080fd5b506101096100ee36600461159b565b6001600160a01b031660009081526005602052604090205490565b6040519081526020016100ca565b34801561012357600080fd5b5061010960025481565b34801561013957600080fd5b506101096101483660046116f9565b805160208183018101805160038252928201919093012091525481565b610178610173366004611605565b610216565b005b34801561018657600080fd5b5061010960045481565b34801561019c57600080fd5b506101786101ab36600461178c565b610a08565b3480156101bc57600080fd5b506101d06101cb3660046115da565b610b20565b6040516100ca9796959493929190611834565b3480156101ef57600080fd5b506001546100b6906001600160a01b031681565b610178610211366004611734565b610c0d565b60005460408051631127a41d60e31b8152905133926001600160a01b03169163893d20e8916004808301926020929190829003018186803b15801561025a57600080fd5b505afa15801561026e573d6000803e3d6000fd5b505050506040513d601f19601f8201168201806040525081019061029291906115be565b6001600160a01b0316146102de5760405162461bcd60e51b815260206004820152600e60248201526d556e617574686f72697a6564202160901b60448201526064015b60405180910390fd5b600082116103275760405162461bcd60e51b8152602060048201526016602482015275546f74616c20616d6f756e74206973207a65726f202160501b60448201526064016102d5565b600254865111156103965760405162461bcd60e51b815260206004820152603360248201527f616464726573736573206c697374206c656e677468206973206d6f7265207468604482015272616e206c6f636b696e67206c656e677468202160681b60648201526084016102d5565b60005b86518110156109ff5760038282815181106103c457634e487b7160e01b600052603260045260246000fd5b60200260200101516040516103d991906117e8565b9081526020016040518091039020546000141561076b576005600088838151811061041457634e487b7160e01b600052603260045260246000fd5b60200260200101516001600160a01b03166001600160a01b031681526020019081526020016000206040518060e0016040528084848151811061046757634e487b7160e01b600052603260045260246000fd5b6020026020010151815260200188848151811061049457634e487b7160e01b600052603260045260246000fd5b60200260200101518152602001600081526020018784815181106104c857634e487b7160e01b600052603260045260246000fd5b602002602001015181526020018684815181106104f557634e487b7160e01b600052603260045260246000fd5b602002602001015181526020016000600381111561052357634e487b7160e01b600052602160045260246000fd5b8152426020918201528254600181018455600093845292819020825180519394600702909101926105579284920190611373565b506020820151816001015560408201518160020155606082015181600301556080820151816004015560a08201518160050160006101000a81548160ff021916908360038111156105b857634e487b7160e01b600052602160045260246000fd5b021790555060c0919091015160069091015560005487516001600160a01b039091169063792bac1e9089908490811061060157634e487b7160e01b600052603260045260246000fd5b602002602001015188848151811061062957634e487b7160e01b600052603260045260246000fd5b60209081029190910101516040516001600160e01b031960e085901b1681526001600160a01b039092166004830152602482015260016044820152606401602060405180830381600087803b15801561068157600080fd5b505af1158015610695573d6000803e3d6000fd5b505050506040513d601f19601f820116820180604052508101906106b991906116d9565b50600480549060006106ca83611983565b9190505550600560008883815181106106f357634e487b7160e01b600052603260045260246000fd5b60200260200101516001600160a01b03166001600160a01b0316815260200190815260200160002080549050600383838151811061074157634e487b7160e01b600052603260045260246000fd5b602002602001015160405161075691906117e8565b908152604051908190036020019020556109ed565b60006001600384848151811061079157634e487b7160e01b600052603260045260246000fd5b60200260200101516040516107a691906117e8565b9081526020016040518091039020546107bf9190611901565b90506000600560008a85815181106107e757634e487b7160e01b600052603260045260246000fd5b60200260200101516001600160a01b03166001600160a01b03168152602001908152602001600020828154811061082e57634e487b7160e01b600052603260045260246000fd5b906000526020600020906007020160010154905060008189858151811061086557634e487b7160e01b600052603260045260246000fd5b602002602001015161087791906118e9565b905080600560008c878151811061089e57634e487b7160e01b600052603260045260246000fd5b60200260200101516001600160a01b03166001600160a01b0316815260200190815260200160002084815481106108e557634e487b7160e01b600052603260045260246000fd5b60009182526020822060016007909202010191909155548a516001600160a01b039091169063792bac1e908c908790811061093057634e487b7160e01b600052603260045260246000fd5b60200260200101518b878151811061095857634e487b7160e01b600052603260045260246000fd5b60209081029190910101516040516001600160e01b031960e085901b1681526001600160a01b039092166004830152602482015260016044820152606401602060405180830381600087803b1580156109b057600080fd5b505af11580156109c4573d6000803e3d6000fd5b505050506040513d601f19601f820116820180604052508101906109e891906116d9565b505050505b806109f781611983565b915050610399565b50505050505050565b60005460408051631127a41d60e31b8152905133926001600160a01b03169163893d20e8916004808301926020929190829003018186803b158015610a4c57600080fd5b505afa158015610a60573d6000803e3d6000fd5b505050506040513d601f19601f82011682018060405250810190610a8491906115be565b6001600160a01b031614610acb5760405162461bcd60e51b815260206004820152600e60248201526d556e617574686f72697a6564202160901b60448201526064016102d5565b60008111610b1b5760405162461bcd60e51b815260206004820152601760248201527f5f6c6f636b696e674c696d6974206973207a65726f202100000000000000000060448201526064016102d5565b600255565b60056020528160005260406000208181548110610b3c57600080fd5b906000526020600020906007020160009150915050806000018054610b6090611948565b80601f0160208091040260200160405190810160405280929190818152602001828054610b8c90611948565b8015610bd95780601f10610bae57610100808354040283529160200191610bd9565b820191906000526020600020905b815481529060010190602001808311610bbc57829003601f168201915b50505060018401546002850154600386015460048701546005880154600690980154969793969295509093509160ff169087565b6001600160a01b03821660009081526005602052604090205460011115610c6d5760405162461bcd60e51b8152602060048201526014602482015273496e766573746d656e74206e6f7420657869747360601b60448201526064016102d5565b600080600385604051610c8091906117e8565b90815260200160405180910390205411610cd45760405162461bcd60e51b8152602060048201526015602482015274125b9d985b1a59081a5b9d995cdd1b595b9d081a59605a1b60448201526064016102d5565b6001600385604051610ce691906117e8565b908152602001604051809103902054610cff9190611901565b905060006001600160a01b0384166000908152600560205260409020805483908110610d3b57634e487b7160e01b600052603260045260246000fd5b600091825260209091206005600790920201015460ff166003811115610d7157634e487b7160e01b600052602160045260246000fd5b1480610dea575060036001600160a01b0384166000908152600560205260409020805483908110610db257634e487b7160e01b600052603260045260246000fd5b600091825260209091206005600790920201015460ff166003811115610de857634e487b7160e01b600052602160045260246000fd5b145b610e365760405162461bcd60e51b815260206004820152601760248201527f416d6f756e7420776173206e6f74206c6f636b6564202100000000000000000060448201526064016102d5565b6001600160a01b0383166000908152600560205260408120805483908110610e6e57634e487b7160e01b600052603260045260246000fd5b9060005260206000209060070201600101549050600060056000866001600160a01b03166001600160a01b031681526020019081526020016000208381548110610ec857634e487b7160e01b600052603260045260246000fd5b600091825260208220600260079092020101549150610ee78284611901565b905084811015610f5f5760405162461bcd60e51b815260206004820152603a60248201527f746f4265556e6c6f636b416d6f756e742069732067726561746572207468616e60448201527f20617661696c61626c65206c6f636b656420616d6f756e74202100000000000060648201526084016102d5565b6001600160a01b0386166000908152600560205260409020805485908110610f9757634e487b7160e01b600052603260045260246000fd5b90600052602060002090600702016004015442116110015760405162461bcd60e51b815260206004820152602160248201527f4c6f636b696e6720706572696f64206973206e6f7420636f6d706c65746564206044820152602160f81b60648201526084016102d5565b6000546001546040516370a0823160e01b81526001600160a01b039182166004820152859291909116906370a082319060240160206040518083038186803b15801561104c57600080fd5b505afa158015611060573d6000803e3d6000fd5b505050506040513d601f19601f8201168201806040525081019061108491906117a4565b116110d15760405162461bcd60e51b815260206004820152601f60248201527f5374616b654f776e657220646f6573206e6f7420686176652066756e6473210060448201526064016102d5565b826110dc86846118e9565b141561115f576001600160a01b03861660009081526005602052604090208054600291908690811061111e57634e487b7160e01b600052603260045260246000fd5b60009182526020909120600560079092020101805460ff1916600183600381111561115957634e487b7160e01b600052602160045260246000fd5b02179055505b61116985836118e9565b6001600160a01b03871660009081526005602052604090208054869081106111a157634e487b7160e01b600052603260045260246000fd5b9060005260206000209060070201600201819055504260056000886001600160a01b03166001600160a01b0316815260200190815260200160002085815481106111fb57634e487b7160e01b600052603260045260246000fd5b600091825260208220600791909102016006019190915554604051633c95d60f60e11b81526001600160a01b03888116600483015260248201889052600260448301529091169063792bac1e90606401602060405180830381600087803b15801561126557600080fd5b505af1158015611279573d6000803e3d6000fd5b505050506040513d601f19601f8201168201806040525081019061129d91906116d9565b50600054600154604051632797f0f360e11b81526001600160a01b039182166004820152888216602482015260448101889052911690634f2fe1e690606401602060405180830381600087803b1580156112f657600080fd5b505af115801561130a573d6000803e3d6000fd5b505050506040513d601f19601f8201168201806040525081019061132e91906116d9565b507fb3a199faea13922a88bc7e834194eab0d2250320dd3979d6cfbb16a105e8bcc386858960405161136293929190611804565b60405180910390a150505050505050565b82805461137f90611948565b90600052602060002090601f0160209004810192826113a157600085556113e7565b82601f106113ba57805160ff19168380011785556113e7565b828001600101855582156113e7579182015b828111156113e75782518255916020019190600101906113cc565b506113f39291506113f7565b5090565b5b808211156113f357600081556001016113f8565b600082601f83011261141c578081fd5b8135602061143161142c836118c5565b611894565b828152818101908583018385028701840188101561144d578586fd5b855b85811015611474578135611462816119ca565b8452928401929084019060010161144f565b5090979650505050505050565b600082601f830112611491578081fd5b813560206114a161142c836118c5565b82815281810190858301855b85811015611474576114c4898684358b0101611530565b845292840192908401906001016114ad565b600082601f8301126114e6578081fd5b813560206114f661142c836118c5565b8281528181019085830183850287018401881015611512578586fd5b855b8581101561147457813584529284019290840190600101611514565b600082601f830112611540578081fd5b813567ffffffffffffffff81111561155a5761155a6119b4565b61156d601f8201601f1916602001611894565b818152846020838601011115611581578283fd5b816020850160208301379081016020019190915292915050565b6000602082840312156115ac578081fd5b81356115b7816119ca565b9392505050565b6000602082840312156115cf578081fd5b81516115b7816119ca565b600080604083850312156115ec578081fd5b82356115f7816119ca565b946020939093013593505050565b60008060008060008060c0878903121561161d578182fd5b863567ffffffffffffffff80821115611634578384fd5b6116408a838b0161140c565b97506020890135915080821115611655578384fd5b6116618a838b016114d6565b96506040890135915080821115611676578384fd5b6116828a838b016114d6565b95506060890135915080821115611697578384fd5b6116a38a838b016114d6565b94506080890135935060a08901359150808211156116bf578283fd5b506116cc89828a01611481565b9150509295509295509295565b6000602082840312156116ea578081fd5b815180151581146115b7578182fd5b60006020828403121561170a578081fd5b813567ffffffffffffffff811115611720578182fd5b61172c84828501611530565b949350505050565b600080600060608486031215611748578283fd5b833567ffffffffffffffff81111561175e578384fd5b61176a86828701611530565b935050602084013561177b816119ca565b929592945050506040919091013590565b60006020828403121561179d578081fd5b5035919050565b6000602082840312156117b5578081fd5b5051919050565b600081518084526117d4816020860160208601611918565b601f01601f19169290920160200192915050565b600082516117fa818460208701611918565b9190910192915050565b600060018060a01b03851682528360208301526060604083015261182b60608301846117bc565b95945050505050565b600060e0825261184760e083018a6117bc565b90508760208301528660408301528560608301528460808301526004841061187f57634e487b7160e01b600052602160045260246000fd5b60a082019390935260c0015295945050505050565b604051601f8201601f1916810167ffffffffffffffff811182821017156118bd576118bd6119b4565b604052919050565b600067ffffffffffffffff8211156118df576118df6119b4565b5060209081020190565b600082198211156118fc576118fc61199e565b500190565b6000828210156119135761191361199e565b500390565b60005b8381101561193357818101518382015260200161191b565b83811115611942576000848401525b50505050565b60028104600182168061195c57607f821691505b6020821081141561197d57634e487b7160e01b600052602260045260246000fd5b50919050565b60006000198214156119975761199761199e565b5060010190565b634e487b7160e01b600052601160045260246000fd5b634e487b7160e01b600052604160045260246000fd5b6001600160a01b03811681146119df57600080fd5b5056fea2646970667358221220a74914aa110ee8d28c4d04b08738071eac61089b728957b5814f97fa595318d164736f6c63430008020033",
  "linkReferences": {},
  "deployedLinkReferences": {}
}