{
  "_format": "hh-sol-artifact-1",
  "contractName": "SIMPSONS",
  "sourceName": "contracts/SIMPSONS.sol",
  "abi": [
    {
      "inputs": [
        {
          "internalType": "address",
          "name": "_owner",
          "type": "address"
        },
        {
          "internalType": "string",
          "name": "token",
          "type": "string"
        },
        {
          "internalType": "string",
          "name": "_symbol",
          "type": "string"
        }
      ],
      "stateMutability": "nonpayable",
      "type": "constructor"
    },
    {
      "anonymous": false,
      "inputs": [
        {
          "indexed": true,
          "internalType": "address",
          "name": "owner",
          "type": "address"
        },
        {
          "indexed": true,
          "internalType": "address",
          "name": "spender",
          "type": "address"
        },
        {
          "indexed": false,
          "internalType": "uint256",
          "name": "value",
          "type": "uint256"
        }
      ],
      "name": "Approval",
      "type": "event"
    },
    {
      "anonymous": false,
      "inputs": [
        {
          "indexed": false,
          "internalType": "address",
          "name": "oldOwner",
          "type": "address"
        },
        {
          "indexed": false,
          "internalType": "address",
          "name": "newOwner",
          "type": "address"
        }
      ],
      "name": "OwnerChanged",
      "type": "event"
    },
    {
      "anonymous": false,
      "inputs": [
        {
          "indexed": false,
          "internalType": "address",
          "name": "newOwner",
          "type": "address"
        }
      ],
      "name": "OwnerNominated",
      "type": "event"
    },
    {
      "anonymous": false,
      "inputs": [
        {
          "indexed": true,
          "internalType": "address",
          "name": "previousOwner",
          "type": "address"
        },
        {
          "indexed": true,
          "internalType": "address",
          "name": "newOwner",
          "type": "address"
        }
      ],
      "name": "OwnershipTransferred",
      "type": "event"
    },
    {
      "anonymous": false,
      "inputs": [
        {
          "indexed": false,
          "internalType": "uint256",
          "name": "id",
          "type": "uint256"
        }
      ],
      "name": "Snapshot",
      "type": "event"
    },
    {
      "anonymous": false,
      "inputs": [
        {
          "indexed": true,
          "internalType": "address",
          "name": "from",
          "type": "address"
        },
        {
          "indexed": true,
          "internalType": "address",
          "name": "to",
          "type": "address"
        },
        {
          "indexed": false,
          "internalType": "uint256",
          "name": "value",
          "type": "uint256"
        }
      ],
      "name": "Transfer",
      "type": "event"
    },
    {
      "inputs": [],
      "name": "acceptOwnership",
      "outputs": [],
      "stateMutability": "nonpayable",
      "type": "function"
    },
    {
      "inputs": [
        {
          "internalType": "address",
          "name": "owner",
          "type": "address"
        },
        {
          "internalType": "address",
          "name": "spender",
          "type": "address"
        }
      ],
      "name": "allowance",
      "outputs": [
        {
          "internalType": "uint256",
          "name": "",
          "type": "uint256"
        }
      ],
      "stateMutability": "view",
      "type": "function"
    },
    {
      "inputs": [
        {
          "internalType": "address",
          "name": "spender",
          "type": "address"
        },
        {
          "internalType": "uint256",
          "name": "amount",
          "type": "uint256"
        }
      ],
      "name": "approve",
      "outputs": [
        {
          "internalType": "bool",
          "name": "",
          "type": "bool"
        }
      ],
      "stateMutability": "nonpayable",
      "type": "function"
    },
    {
      "inputs": [
        {
          "internalType": "address",
          "name": "account",
          "type": "address"
        }
      ],
      "name": "balanceOf",
      "outputs": [
        {
          "internalType": "uint256",
          "name": "",
          "type": "uint256"
        }
      ],
      "stateMutability": "view",
      "type": "function"
    },
    {
      "inputs": [
        {
          "internalType": "address",
          "name": "account",
          "type": "address"
        },
        {
          "internalType": "uint256",
          "name": "snapshotId",
          "type": "uint256"
        }
      ],
      "name": "balanceOfAt",
      "outputs": [
        {
          "internalType": "uint256",
          "name": "",
          "type": "uint256"
        }
      ],
      "stateMutability": "view",
      "type": "function"
    },
    {
      "inputs": [
        {
          "internalType": "uint256",
          "name": "amount",
          "type": "uint256"
        }
      ],
      "name": "burn",
      "outputs": [],
      "stateMutability": "nonpayable",
      "type": "function"
    },
    {
      "inputs": [
        {
          "internalType": "address",
          "name": "account",
          "type": "address"
        },
        {
          "internalType": "uint256",
          "name": "amount",
          "type": "uint256"
        }
      ],
      "name": "burnFrom",
      "outputs": [],
      "stateMutability": "nonpayable",
      "type": "function"
    },
    {
      "inputs": [],
      "name": "decimals",
      "outputs": [
        {
          "internalType": "uint8",
          "name": "",
          "type": "uint8"
        }
      ],
      "stateMutability": "view",
      "type": "function"
    },
    {
      "inputs": [
        {
          "internalType": "address",
          "name": "spender",
          "type": "address"
        },
        {
          "internalType": "uint256",
          "name": "subtractedValue",
          "type": "uint256"
        }
      ],
      "name": "decreaseAllowance",
      "outputs": [
        {
          "internalType": "bool",
          "name": "",
          "type": "bool"
        }
      ],
      "stateMutability": "nonpayable",
      "type": "function"
    },
    {
      "inputs": [
        {
          "internalType": "address",
          "name": "spender",
          "type": "address"
        },
        {
          "internalType": "uint256",
          "name": "addedValue",
          "type": "uint256"
        }
      ],
      "name": "increaseAllowance",
      "outputs": [
        {
          "internalType": "bool",
          "name": "",
          "type": "bool"
        }
      ],
      "stateMutability": "nonpayable",
      "type": "function"
    },
    {
      "inputs": [],
      "name": "name",
      "outputs": [
        {
          "internalType": "string",
          "name": "",
          "type": "string"
        }
      ],
      "stateMutability": "view",
      "type": "function"
    },
    {
      "inputs": [
        {
          "internalType": "address",
          "name": "_owner",
          "type": "address"
        }
      ],
      "name": "nominateNewOwner",
      "outputs": [],
      "stateMutability": "nonpayable",
      "type": "function"
    },
    {
      "inputs": [],
      "name": "nominatedOwner",
      "outputs": [
        {
          "internalType": "address",
          "name": "",
          "type": "address"
        }
      ],
      "stateMutability": "view",
      "type": "function"
    },
    {
      "inputs": [],
      "name": "owner",
      "outputs": [
        {
          "internalType": "address",
          "name": "",
          "type": "address"
        }
      ],
      "stateMutability": "view",
      "type": "function"
    },
    {
      "inputs": [],
      "name": "renounceOwnership",
      "outputs": [],
      "stateMutability": "nonpayable",
      "type": "function"
    },
    {
      "inputs": [],
      "name": "snapshot",
      "outputs": [],
      "stateMutability": "nonpayable",
      "type": "function"
    },
    {
      "inputs": [],
      "name": "symbol",
      "outputs": [
        {
          "internalType": "string",
          "name": "",
          "type": "string"
        }
      ],
      "stateMutability": "view",
      "type": "function"
    },
    {
      "inputs": [],
      "name": "totalSupply",
      "outputs": [
        {
          "internalType": "uint256",
          "name": "",
          "type": "uint256"
        }
      ],
      "stateMutability": "view",
      "type": "function"
    },
    {
      "inputs": [
        {
          "internalType": "uint256",
          "name": "snapshotId",
          "type": "uint256"
        }
      ],
      "name": "totalSupplyAt",
      "outputs": [
        {
          "internalType": "uint256",
          "name": "",
          "type": "uint256"
        }
      ],
      "stateMutability": "view",
      "type": "function"
    },
    {
      "inputs": [
        {
          "internalType": "address",
          "name": "to",
          "type": "address"
        },
        {
          "internalType": "uint256",
          "name": "amount",
          "type": "uint256"
        }
      ],
      "name": "transfer",
      "outputs": [
        {
          "internalType": "bool",
          "name": "",
          "type": "bool"
        }
      ],
      "stateMutability": "nonpayable",
      "type": "function"
    },
    {
      "inputs": [
        {
          "internalType": "address",
          "name": "from",
          "type": "address"
        },
        {
          "internalType": "address",
          "name": "to",
          "type": "address"
        },
        {
          "internalType": "uint256",
          "name": "amount",
          "type": "uint256"
        }
      ],
      "name": "transferFrom",
      "outputs": [
        {
          "internalType": "bool",
          "name": "",
          "type": "bool"
        }
      ],
      "stateMutability": "nonpayable",
      "type": "function"
    },
    {
      "inputs": [
        {
          "internalType": "address",
          "name": "newOwner",
          "type": "address"
        }
      ],
      "name": "transferOwnership",
      "outputs": [],
      "stateMutability": "nonpayable",
      "type": "function"
    }
  ],
  "bytecode": "0x60806040523480156200001157600080fd5b50604051620018f6380380620018f6833981016040819052620000349162000541565b82828281600390805190602001906200004f929190620003e8565b50805162000065906004906020840190620003e8565b5050506001600160a01b038116620000c45760405162461bcd60e51b815260206004820152601960248201527f4f776e657220616464726573732063616e6e6f7420626520300000000000000060448201526064015b60405180910390fd5b600980546001600160a01b0319166001600160a01b038316908117909155604080516000815260208101929092527fb532073b38c83145e3e5135377a08bf9aab55bc0fd7c1179cd4fb995d2a5159c910160405180910390a15062000138836d18a6e32246c99c60ad850000000062000141565b50505062000665565b6001600160a01b038216620001995760405162461bcd60e51b815260206004820152601f60248201527f45524332303a206d696e7420746f20746865207a65726f2061646472657373006044820152606401620000bb565b620001a76000838362000234565b8060026000828254620001bb9190620005c7565b90915550506001600160a01b03821660009081526020819052604081208054839290620001ea908490620005c7565b90915550506040518181526001600160a01b038316906000907fddf252ad1be2c89b69c2b068fc378daa952ba7f163c4a11628f55a4df523b3ef9060200160405180910390a35050565b6200024c8383836200025160201b620007401760201c565b505050565b620002698383836200024c60201b6200078d1760201c565b6001600160a01b03831662000293576200028382620002be565b6200028d620002ef565b6200024c565b6001600160a01b038216620002ad576200028383620002be565b620002b883620002be565b6200024c825b6001600160a01b0381166000908152600560205260409020620002ec90620002e68362000301565b62000320565b50565b620002ff6006620002e660025490565b565b6001600160a01b0381166000908152602081905260409020545b919050565b60006200032c6200036f565b9050806200033a846200038d565b10156200024c578254600180820185556000858152602080822090930193909355938401805494850181558252902090910155565b6000620003886008620003e460201b620007921760201c565b905090565b8054600090620003a0575060006200031b565b81548290620003b290600190620005e2565b81548110620003d157634e487b7160e01b600052603260045260246000fd5b906000526020600020015490506200031b565b5490565b828054620003f690620005fc565b90600052602060002090601f0160209004810192826200041a576000855562000465565b82601f106200043557805160ff191683800117855562000465565b8280016001018555821562000465579182015b828111156200046557825182559160200191906001019062000448565b506200047392915062000477565b5090565b5b8082111562000473576000815560010162000478565b600082601f8301126200049f578081fd5b81516001600160401b0380821115620004bc57620004bc6200064f565b604051601f8301601f19908116603f01168101908282118183101715620004e757620004e76200064f565b8160405283815260209250868385880101111562000503578485fd5b8491505b8382101562000526578582018301518183018401529082019062000507565b838211156200053757848385830101525b9695505050505050565b60008060006060848603121562000556578283fd5b83516001600160a01b03811681146200056d578384fd5b60208501519093506001600160401b03808211156200058a578384fd5b62000598878388016200048e565b93506040860151915080821115620005ae578283fd5b50620005bd868287016200048e565b9150509250925092565b60008219821115620005dd57620005dd62000639565b500190565b600082821015620005f757620005f762000639565b500390565b6002810460018216806200061157607f821691505b602082108114156200063357634e487b7160e01b600052602260045260246000fd5b50919050565b634e487b7160e01b600052601160045260246000fd5b634e487b7160e01b600052604160045260246000fd5b61128180620006756000396000f3fe608060405234801561001057600080fd5b50600436106101425760003560e01c8063715018a6116100b85780639711715a1161007c5780639711715a14610286578063981b24d01461028e578063a457c2d7146102a1578063a9059cbb146102b4578063dd62ed3e146102c7578063f2fde38b146102da57610142565b8063715018a61461024857806379ba50971461025057806379cc6790146102585780638da5cb5b1461026b57806395d89b411461027e57610142565b8063313ce5671161010a578063313ce567146101c257806339509351146101d157806342966c68146101e45780634ee2cd7e146101f757806353a47bb71461020a57806370a082311461023557610142565b806306fdde0314610147578063095ea7b3146101655780631627540c1461018857806318160ddd1461019d57806323b872dd146101af575b600080fd5b61014f6102ed565b60405161015c9190611158565b60405180910390f35b610178610173366004611117565b61037f565b604051901515815260200161015c565b61019b610196366004611090565b610399565b005b6002545b60405190815260200161015c565b6101786101bd3660046110dc565b6103f5565b6040516012815260200161015c565b6101786101df366004611117565b610419565b61019b6101f2366004611140565b61043b565b6101a1610205366004611117565b610448565b600a5461021d906001600160a01b031681565b6040516001600160a01b03909116815260200161015c565b6101a1610243366004611090565b610491565b61019b6104b0565b61019b6104c4565b61019b610266366004611117565b6105b3565b60095461021d906001600160a01b031681565b61014f6105cc565b61019b6105db565b6101a161029c366004611140565b6105eb565b6101786102af366004611117565b610616565b6101786102c2366004611117565b610691565b6101a16102d53660046110aa565b61069f565b61019b6102e8366004611090565b6106ca565b6060600380546102fc906111fa565b80601f0160208091040260200160405190810160405280929190818152602001828054610328906111fa565b80156103755780601f1061034a57610100808354040283529160200191610375565b820191906000526020600020905b81548152906001019060200180831161035857829003601f168201915b5050505050905090565b60003361038d818585610796565b60019150505b92915050565b6103a16108ba565b600a80546001600160a01b0319166001600160a01b0383169081179091556040519081527f906a1c6bd7e3091ea86693dd029a831c19049ce77f1dce2ce0bab1cacbabce229060200160405180910390a150565b60003361040385828561092c565b61040e8585856109a6565b506001949350505050565b60003361038d81858561042c838361069f565b61043691906111ab565b610796565b6104453382610b7f565b50565b6001600160a01b03821660009081526005602052604081208190819061046f908590610cd9565b91509150816104865761048185610491565b610488565b805b95945050505050565b6001600160a01b0381166000908152602081905260409020545b919050565b6104b86108ba565b6104c26000610dde565b565b600a546001600160a01b031633146105415760405162461bcd60e51b815260206004820152603560248201527f596f75206d757374206265206e6f6d696e61746564206265666f726520796f7560448201527402063616e20616363657074206f776e65727368697605c1b60648201526084015b60405180910390fd5b600954600a54604080516001600160a01b0393841681529290911660208301527fb532073b38c83145e3e5135377a08bf9aab55bc0fd7c1179cd4fb995d2a5159c910160405180910390a1600a8054600980546001600160a01b03199081166001600160a01b03841617909155169055565b6105be82338361092c565b6105c88282610b7f565b5050565b6060600480546102fc906111fa565b6105e36108ba565b610445610e30565b60008060006105fb846006610cd9565b915091508161060c5760025461060e565b805b949350505050565b60003381610624828661069f565b9050838110156106845760405162461bcd60e51b815260206004820152602560248201527f45524332303a2064656372656173656420616c6c6f77616e63652062656c6f77604482015264207a65726f60d81b6064820152608401610538565b61040e8286868403610796565b60003361038d8185856109a6565b6001600160a01b03918216600090815260016020908152604080832093909416825291909152205490565b6106d26108ba565b6001600160a01b0381166107375760405162461bcd60e51b815260206004820152602660248201527f4f776e61626c653a206e6577206f776e657220697320746865207a65726f206160448201526564647265737360d01b6064820152608401610538565b61044581610dde565b6001600160a01b0383166107645761075782610e8a565b61075f610eb4565b61078d565b6001600160a01b03821661077b5761075783610e8a565b61078483610e8a565b61078d82610e8a565b505050565b5490565b6001600160a01b0383166107f85760405162461bcd60e51b8152602060048201526024808201527f45524332303a20617070726f76652066726f6d20746865207a65726f206164646044820152637265737360e01b6064820152608401610538565b6001600160a01b0382166108595760405162461bcd60e51b815260206004820152602260248201527f45524332303a20617070726f766520746f20746865207a65726f206164647265604482015261737360f01b6064820152608401610538565b6001600160a01b0383811660008181526001602090815260408083209487168084529482529182902085905590518481527f8c5be1e5ebec7d5bd14f71427d1e84f3dd0314c0f7b2291e5b200ac8c7c3b925910160405180910390a3505050565b6009546001600160a01b031633146104c25760405162461bcd60e51b815260206004820152602f60248201527f4f6e6c792074686520636f6e7472616374206f776e6572206d6179207065726660448201526e37b936903a3434b99030b1ba34b7b760891b6064820152608401610538565b6000610938848461069f565b905060001981146109a057818110156109935760405162461bcd60e51b815260206004820152601d60248201527f45524332303a20696e73756666696369656e7420616c6c6f77616e63650000006044820152606401610538565b6109a08484848403610796565b50505050565b6001600160a01b038316610a0a5760405162461bcd60e51b815260206004820152602560248201527f45524332303a207472616e736665722066726f6d20746865207a65726f206164604482015264647265737360d81b6064820152608401610538565b6001600160a01b038216610a6c5760405162461bcd60e51b815260206004820152602360248201527f45524332303a207472616e7366657220746f20746865207a65726f206164647260448201526265737360e81b6064820152608401610538565b610a77838383610ec2565b6001600160a01b03831660009081526020819052604090205481811015610aef5760405162461bcd60e51b815260206004820152602660248201527f45524332303a207472616e7366657220616d6f756e7420657863656564732062604482015265616c616e636560d01b6064820152608401610538565b6001600160a01b03808516600090815260208190526040808220858503905591851681529081208054849290610b269084906111ab565b92505081905550826001600160a01b0316846001600160a01b03167fddf252ad1be2c89b69c2b068fc378daa952ba7f163c4a11628f55a4df523b3ef84604051610b7291815260200190565b60405180910390a36109a0565b6001600160a01b038216610bdf5760405162461bcd60e51b815260206004820152602160248201527f45524332303a206275726e2066726f6d20746865207a65726f206164647265736044820152607360f81b6064820152608401610538565b610beb82600083610ec2565b6001600160a01b03821660009081526020819052604090205481811015610c5f5760405162461bcd60e51b815260206004820152602260248201527f45524332303a206275726e20616d6f756e7420657863656564732062616c616e604482015261636560f01b6064820152608401610538565b6001600160a01b0383166000908152602081905260408120838303905560028054849290610c8e9084906111e3565b90915550506040518281526000906001600160a01b038516907fddf252ad1be2c89b69c2b068fc378daa952ba7f163c4a11628f55a4df523b3ef9060200160405180910390a361078d565b60008060008411610d255760405162461bcd60e51b815260206004820152601660248201527504552433230536e617073686f743a20696420697320360541b6044820152606401610538565b610d2d610ecd565b841115610d7c5760405162461bcd60e51b815260206004820152601d60248201527f4552433230536e617073686f743a206e6f6e6578697374656e742069640000006044820152606401610538565b6000610d888486610edd565b8454909150811415610da1576000809250925050610dd7565b6001846001018281548110610dc657634e487b7160e01b600052603260045260246000fd5b906000526020600020015492509250505b9250929050565b600980546001600160a01b038381166001600160a01b0319831681179093556040519116919082907f8be0079c531659141344cd1fd0a4f28419497f9722a3daafe3b4186f6b6457e090600090a35050565b6000610e40600880546001019055565b6000610e4a610ecd565b90507f8030e83b04d87bef53480e26263266d6ca66863aa8506aca6f2559d18aa1cb6781604051610e7d91815260200190565b60405180910390a1905090565b6001600160a01b038116600090815260056020526040902061044590610eaf83610491565b610fbc565b6104c26006610eaf60025490565b61078d838383610740565b6000610ed860085490565b905090565b8154600090610eee57506000610393565b82546000905b80821015610f58576000610f088383611006565b905084868281548110610f2b57634e487b7160e01b600052603260045260246000fd5b90600052602060002001541115610f4457809150610f52565b610f4f8160016111ab565b92505b50610ef4565b600082118015610f9b57508385610f706001856111e3565b81548110610f8e57634e487b7160e01b600052603260045260246000fd5b9060005260206000200154145b15610fb457610fab6001836111e3565b92505050610393565b509050610393565b6000610fc6610ecd565b905080610fd284611028565b101561078d578254600180820185556000858152602080822090930193909355938401805494850181558252902090910155565b600061101560028484186111c3565b611021908484166111ab565b9392505050565b8054600090611039575060006104ab565b81548290611049906001906111e3565b8154811061106757634e487b7160e01b600052603260045260246000fd5b906000526020600020015490506104ab565b80356001600160a01b03811681146104ab57600080fd5b6000602082840312156110a1578081fd5b61102182611079565b600080604083850312156110bc578081fd5b6110c583611079565b91506110d360208401611079565b90509250929050565b6000806000606084860312156110f0578081fd5b6110f984611079565b925061110760208501611079565b9150604084013590509250925092565b60008060408385031215611129578182fd5b61113283611079565b946020939093013593505050565b600060208284031215611151578081fd5b5035919050565b6000602080835283518082850152825b8181101561118457858101830151858201604001528201611168565b818111156111955783604083870101525b50601f01601f1916929092016040019392505050565b600082198211156111be576111be611235565b500190565b6000826111de57634e487b7160e01b81526012600452602481fd5b500490565b6000828210156111f5576111f5611235565b500390565b60028104600182168061120e57607f821691505b6020821081141561122f57634e487b7160e01b600052602260045260246000fd5b50919050565b634e487b7160e01b600052601160045260246000fdfea264697066735822122022d088405720255f898c5b0c022b4328d802aab9e07650187379f86b9b1c9d1564736f6c63430008020033",
  "linkReferences": {},
  "deployedLinkReferences": {}
}