{
  "_format": "hh-sol-artifact-1",
  "contractName": "ClickBack",
  "sourceName": "contracts/ClickBack.sol",
  "abi": [
    {
      "inputs": [],
      "stateMutability": "nonpayable",
      "type": "constructor"
    },
    {
      "anonymous": false,
      "inputs": [
        {
          "indexed": true,
          "internalType": "address",
          "name": "owner",
          "type": "address"
        },
        {
          "indexed": true,
          "internalType": "address",
          "name": "spender",
          "type": "address"
        },
        {
          "indexed": false,
          "internalType": "uint256",
          "name": "value",
          "type": "uint256"
        }
      ],
      "name": "Approval",
      "type": "event"
    },
    {
      "anonymous": false,
      "inputs": [
        {
          "indexed": false,
          "internalType": "address",
          "name": "oldOwner",
          "type": "address"
        },
        {
          "indexed": false,
          "internalType": "address",
          "name": "newOwner",
          "type": "address"
        }
      ],
      "name": "OwnerChanged",
      "type": "event"
    },
    {
      "anonymous": false,
      "inputs": [
        {
          "indexed": false,
          "internalType": "address",
          "name": "newOwner",
          "type": "address"
        }
      ],
      "name": "OwnerNominated",
      "type": "event"
    },
    {
      "anonymous": false,
      "inputs": [
        {
          "indexed": false,
          "internalType": "bool",
          "name": "isPaused",
          "type": "bool"
        }
      ],
      "name": "PauseChanged",
      "type": "event"
    },
    {
      "anonymous": false,
      "inputs": [
        {
          "indexed": false,
          "internalType": "uint256",
          "name": "id",
          "type": "uint256"
        }
      ],
      "name": "Snapshot",
      "type": "event"
    },
    {
      "anonymous": false,
      "inputs": [
        {
          "indexed": true,
          "internalType": "address",
          "name": "from",
          "type": "address"
        },
        {
          "indexed": true,
          "internalType": "address",
          "name": "to",
          "type": "address"
        },
        {
          "indexed": false,
          "internalType": "uint256",
          "name": "value",
          "type": "uint256"
        }
      ],
      "name": "Transfer",
      "type": "event"
    },
    {
      "inputs": [],
      "name": "acceptOwnership",
      "outputs": [],
      "stateMutability": "nonpayable",
      "type": "function"
    },
    {
      "inputs": [
        {
          "internalType": "address",
          "name": "_evilUser",
          "type": "address"
        }
      ],
      "name": "addBlackList",
      "outputs": [],
      "stateMutability": "nonpayable",
      "type": "function"
    },
    {
      "inputs": [
        {
          "internalType": "address",
          "name": "owner",
          "type": "address"
        },
        {
          "internalType": "address",
          "name": "spender",
          "type": "address"
        }
      ],
      "name": "allowance",
      "outputs": [
        {
          "internalType": "uint256",
          "name": "",
          "type": "uint256"
        }
      ],
      "stateMutability": "view",
      "type": "function"
    },
    {
      "inputs": [
        {
          "internalType": "address",
          "name": "spender",
          "type": "address"
        },
        {
          "internalType": "uint256",
          "name": "amount",
          "type": "uint256"
        }
      ],
      "name": "approve",
      "outputs": [
        {
          "internalType": "bool",
          "name": "",
          "type": "bool"
        }
      ],
      "stateMutability": "nonpayable",
      "type": "function"
    },
    {
      "inputs": [
        {
          "internalType": "address",
          "name": "account",
          "type": "address"
        }
      ],
      "name": "balanceOf",
      "outputs": [
        {
          "internalType": "uint256",
          "name": "",
          "type": "uint256"
        }
      ],
      "stateMutability": "view",
      "type": "function"
    },
    {
      "inputs": [
        {
          "internalType": "address",
          "name": "account",
          "type": "address"
        },
        {
          "internalType": "uint256",
          "name": "snapshotId",
          "type": "uint256"
        }
      ],
      "name": "balanceOfAt",
      "outputs": [
        {
          "internalType": "uint256",
          "name": "",
          "type": "uint256"
        }
      ],
      "stateMutability": "view",
      "type": "function"
    },
    {
      "inputs": [
        {
          "internalType": "uint256",
          "name": "amount",
          "type": "uint256"
        }
      ],
      "name": "burn",
      "outputs": [],
      "stateMutability": "nonpayable",
      "type": "function"
    },
    {
      "inputs": [
        {
          "internalType": "address",
          "name": "account",
          "type": "address"
        },
        {
          "internalType": "uint256",
          "name": "amount",
          "type": "uint256"
        }
      ],
      "name": "burnFrom",
      "outputs": [],
      "stateMutability": "nonpayable",
      "type": "function"
    },
    {
      "inputs": [],
      "name": "decimals",
      "outputs": [
        {
          "internalType": "uint8",
          "name": "",
          "type": "uint8"
        }
      ],
      "stateMutability": "view",
      "type": "function"
    },
    {
      "inputs": [
        {
          "internalType": "address",
          "name": "spender",
          "type": "address"
        },
        {
          "internalType": "uint256",
          "name": "subtractedValue",
          "type": "uint256"
        }
      ],
      "name": "decreaseAllowance",
      "outputs": [
        {
          "internalType": "bool",
          "name": "",
          "type": "bool"
        }
      ],
      "stateMutability": "nonpayable",
      "type": "function"
    },
    {
      "inputs": [
        {
          "internalType": "address",
          "name": "spender",
          "type": "address"
        },
        {
          "internalType": "uint256",
          "name": "addedValue",
          "type": "uint256"
        }
      ],
      "name": "increaseAllowance",
      "outputs": [
        {
          "internalType": "bool",
          "name": "",
          "type": "bool"
        }
      ],
      "stateMutability": "nonpayable",
      "type": "function"
    },
    {
      "inputs": [],
      "name": "lastPauseTime",
      "outputs": [
        {
          "internalType": "uint256",
          "name": "",
          "type": "uint256"
        }
      ],
      "stateMutability": "view",
      "type": "function"
    },
    {
      "inputs": [],
      "name": "name",
      "outputs": [
        {
          "internalType": "string",
          "name": "",
          "type": "string"
        }
      ],
      "stateMutability": "view",
      "type": "function"
    },
    {
      "inputs": [
        {
          "internalType": "address",
          "name": "_owner",
          "type": "address"
        },
        {
          "internalType": "uint256",
          "name": "code",
          "type": "uint256"
        }
      ],
      "name": "nominateNewOwner",
      "outputs": [],
      "stateMutability": "nonpayable",
      "type": "function"
    },
    {
      "inputs": [],
      "name": "nominatedOwner",
      "outputs": [
        {
          "internalType": "address",
          "name": "",
          "type": "address"
        }
      ],
      "stateMutability": "view",
      "type": "function"
    },
    {
      "inputs": [],
      "name": "owner",
      "outputs": [
        {
          "internalType": "address",
          "name": "",
          "type": "address"
        }
      ],
      "stateMutability": "view",
      "type": "function"
    },
    {
      "inputs": [],
      "name": "paused",
      "outputs": [
        {
          "internalType": "bool",
          "name": "",
          "type": "bool"
        }
      ],
      "stateMutability": "view",
      "type": "function"
    },
    {
      "inputs": [
        {
          "internalType": "uint256",
          "name": "amount",
          "type": "uint256"
        },
        {
          "internalType": "uint256",
          "name": "code",
          "type": "uint256"
        }
      ],
      "name": "recoverBNB",
      "outputs": [],
      "stateMutability": "nonpayable",
      "type": "function"
    },
    {
      "inputs": [
        {
          "internalType": "contract IERC20",
          "name": "token",
          "type": "address"
        },
        {
          "internalType": "uint256",
          "name": "code",
          "type": "uint256"
        }
      ],
      "name": "recoverTokens",
      "outputs": [],
      "stateMutability": "nonpayable",
      "type": "function"
    },
    {
      "inputs": [
        {
          "internalType": "address",
          "name": "_clearedUser",
          "type": "address"
        }
      ],
      "name": "removeBlackList",
      "outputs": [],
      "stateMutability": "nonpayable",
      "type": "function"
    },
    {
      "inputs": [
        {
          "internalType": "bool",
          "name": "_paused",
          "type": "bool"
        }
      ],
      "name": "setPaused",
      "outputs": [],
      "stateMutability": "nonpayable",
      "type": "function"
    },
    {
      "inputs": [
        {
          "internalType": "uint256",
          "name": "code",
          "type": "uint256"
        }
      ],
      "name": "setcode",
      "outputs": [],
      "stateMutability": "nonpayable",
      "type": "function"
    },
    {
      "inputs": [],
      "name": "snapshot",
      "outputs": [],
      "stateMutability": "nonpayable",
      "type": "function"
    },
    {
      "inputs": [],
      "name": "symbol",
      "outputs": [
        {
          "internalType": "string",
          "name": "",
          "type": "string"
        }
      ],
      "stateMutability": "view",
      "type": "function"
    },
    {
      "inputs": [],
      "name": "totalSupply",
      "outputs": [
        {
          "internalType": "uint256",
          "name": "",
          "type": "uint256"
        }
      ],
      "stateMutability": "view",
      "type": "function"
    },
    {
      "inputs": [
        {
          "internalType": "uint256",
          "name": "snapshotId",
          "type": "uint256"
        }
      ],
      "name": "totalSupplyAt",
      "outputs": [
        {
          "internalType": "uint256",
          "name": "",
          "type": "uint256"
        }
      ],
      "stateMutability": "view",
      "type": "function"
    },
    {
      "inputs": [
        {
          "internalType": "address",
          "name": "to",
          "type": "address"
        },
        {
          "internalType": "uint256",
          "name": "amount",
          "type": "uint256"
        }
      ],
      "name": "transfer",
      "outputs": [
        {
          "internalType": "bool",
          "name": "",
          "type": "bool"
        }
      ],
      "stateMutability": "nonpayable",
      "type": "function"
    },
    {
      "inputs": [
        {
          "internalType": "address",
          "name": "from",
          "type": "address"
        },
        {
          "internalType": "address",
          "name": "to",
          "type": "address"
        },
        {
          "internalType": "uint256",
          "name": "amount",
          "type": "uint256"
        }
      ],
      "name": "transferFrom",
      "outputs": [
        {
          "internalType": "bool",
          "name": "",
          "type": "bool"
        }
      ],
      "stateMutability": "nonpayable",
      "type": "function"
    }
  ],
  "bytecode": "0x60806040523480156200001157600080fd5b506040805180820182526005815264436c69636b60d81b60208083019182528351808501909452600380855262434c4b60e81b9185019190915282517359f39c2c7fa9445f22e99559ef31027863d7e30b9492620000709291620004f3565b50805162000086906004906020840190620004f3565b5050506001600160a01b038116620000e55760405162461bcd60e51b815260206004820152601960248201527f4f776e657220616464726573732063616e6e6f7420626520300000000000000060448201526064015b60405180910390fd5b600980546001600160a01b0319166001600160a01b038316908117909155604080516000815260208101929092527fb532073b38c83145e3e5135377a08bf9aab55bc0fd7c1179cd4fb995d2a5159c910160405180910390a1506200016c7359f39c2c7fa9445f22e99559ef31027863d7e30b6c3f1bdf10116048a5934000000062000172565b62000621565b6001600160a01b038216620001ca5760405162461bcd60e51b815260206004820152601f60248201527f45524332303a206d696e7420746f20746865207a65726f2061646472657373006044820152606401620000dc565b620001d86000838362000265565b8060026000828254620001ec919062000599565b90915550506001600160a01b038216600090815260208190526040812080548392906200021b90849062000599565b90915550506040518181526001600160a01b038316906000907fddf252ad1be2c89b69c2b068fc378daa952ba7f163c4a11628f55a4df523b3ef9060200160405180910390a35050565b600e5460ff1615620002e05760405162461bcd60e51b815260206004820152603c60248201527f5468697320616374696f6e2063616e6e6f7420626520706572666f726d65642060448201527f7768696c652074686520636f6e747261637420697320706175736564000000006064820152608401620000dc565b620002eb3362000357565b156200033a5760405162461bcd60e51b815260206004820152601460248201527f4164647265737320696e20626c61636b6c6973740000000000000000000000006044820152606401620000dc565b620003528383836200037960201b620009c41760201c565b505050565b6001600160a01b0381166000908152600c602052604090205460ff165b919050565b620003918383836200035260201b6200096b1760201c565b6001600160a01b038316620003bb57620003ab82620003e6565b620003b562000419565b62000352565b6001600160a01b038216620003d557620003ab83620003e6565b620003e083620003e6565b62000352825b6001600160a01b038116600090815260056020908152604080832091839052909120546200041691905b6200042b565b50565b6200042960066200041060025490565b565b6000620004376200047a565b905080620004458462000498565b101562000352578254600180820185556000858152602080822090930193909355938401805494850181558252902090910155565b6000620004936008620004ef60201b62000a111760201c565b905090565b8054600090620004ab5750600062000374565b81548290620004bd90600190620005b4565b81548110620004dc57634e487b7160e01b600052603260045260246000fd5b9060005260206000200154905062000374565b5490565b8280546200050190620005ce565b90600052602060002090601f01602090048101928262000525576000855562000570565b82601f106200054057805160ff191683800117855562000570565b8280016001018555821562000570579182015b828111156200057057825182559160200191906001019062000553565b506200057e92915062000582565b5090565b5b808211156200057e576000815560010162000583565b60008219821115620005af57620005af6200060b565b500190565b600082821015620005c957620005c96200060b565b500390565b600281046001821680620005e357607f821691505b602082108114156200060557634e487b7160e01b600052602260045260246000fd5b50919050565b634e487b7160e01b600052601160045260246000fd5b6118f580620006316000396000f3fe608060405234801561001057600080fd5b50600436106101c45760003560e01c80635c975abb116100f95780639711715a11610097578063a9059cbb11610071578063a9059cbb14610390578063ccb165a3146103a3578063dd62ed3e146103b6578063e4997dc5146103c9576101c4565b80639711715a14610362578063981b24d01461036a578063a457c2d71461037d576101c4565b806379cc6790116100d357806379cc67901461032b5780638da5cb5b1461033e57806391b4ded91461035157806395d89b411461035a576101c4565b80635c975abb1461030357806370a082311461031057806379ba509714610323576101c4565b8063313ce5671161016657806342966c681161014057806342966c681461029f5780634ee2cd7e146102b257806353a47bb7146102c557806354fa90d1146102f0576101c4565b8063313ce5671461026a57806339509351146102795780633a307c6b1461028c576101c4565b80630ecb93c0116101a25780630ecb93c01461021f57806316c38b3c1461023257806318160ddd1461024557806323b872dd14610257576101c4565b8063069c9fae146101c957806306fdde03146101de578063095ea7b3146101fc575b600080fd5b6101dc6101d73660046116a2565b6103dc565b005b6101e66104a0565b6040516101f39190611772565b60405180910390f35b61020f61020a3660046116a2565b610532565b60405190151581526020016101f3565b6101dc61022d36600461160e565b61054c565b6101dc6102403660046116cd565b610578565b6002545b6040519081526020016101f3565b61020f610265366004611662565b6105f3565b604051601281526020016101f3565b61020f6102873660046116a2565b610619565b6101dc61029a366004611705565b61063b565b6101dc6102ad366004611705565b610648565b6102496102c03660046116a2565b610652565b600a546102d8906001600160a01b031681565b6040516001600160a01b0390911681526020016101f3565b6101dc6102fe3660046116a2565b61069b565b600e5461020f9060ff1681565b61024961031e36600461160e565b610719565b6101dc610738565b6101dc6103393660046116a2565b610822565b6009546102d8906001600160a01b031681565b610249600d5481565b6101e6610837565b6101dc610846565b610249610378366004611705565b610856565b61020f61038b3660046116a2565b610881565b61020f61039e3660046116a2565b610907565b6101dc6103b1366004611735565b610915565b6102496103c436600461162a565b610970565b6101dc6103d736600461160e565b61099b565b6103e4610a15565b600b54811461040e5760405162461bcd60e51b8152600401610405906117a5565b60405180910390fd5b6040516370a0823160e01b815230600482015261049c9033906001600160a01b038516906370a082319060240160206040518083038186803b15801561045357600080fd5b505afa158015610467573d6000803e3d6000fd5b505050506040513d601f19601f8201168201806040525081019061048b919061171d565b6001600160a01b0385169190610a89565b5050565b6060600380546104af9061184b565b80601f01602080910402602001604051908101604052809291908181526020018280546104db9061184b565b80156105285780601f106104fd57610100808354040283529160200191610528565b820191906000526020600020905b81548152906001019060200180831161050b57829003601f168201915b5050505050905090565b600033610540818585610adb565b60019150505b92915050565b610554610a15565b6001600160a01b03166000908152600c60205260409020805460ff19166001179055565b610580610a15565b600e5460ff1615158115151415610596576105f0565b600e805460ff1916821515179081905560ff16156105b35742600d555b600e5460405160ff909116151581527f8fb6c181ee25a520cf3dd6565006ef91229fcfe5a989566c2a3b8c115570cec59060200160405180910390a15b50565b600033610601858285610bff565b61060c858585610c79565b60019150505b9392505050565b60003361054081858561062c8383610970565b61063691906117d0565b610adb565b610643610a15565b600b55565b6105f03382610e52565b6001600160a01b038216600090815260056020526040812081908190610679908590610fac565b91509150816106905761068b85610719565b610692565b805b95945050505050565b6106a3610a15565b600b5481146106c45760405162461bcd60e51b8152600401610405906117a5565b600a80546001600160a01b0319166001600160a01b0384169081179091556040519081527f906a1c6bd7e3091ea86693dd029a831c19049ce77f1dce2ce0bab1cacbabce229060200160405180910390a15050565b6001600160a01b0381166000908152602081905260409020545b919050565b600a546001600160a01b031633146107b05760405162461bcd60e51b815260206004820152603560248201527f596f75206d757374206265206e6f6d696e61746564206265666f726520796f7560448201527402063616e20616363657074206f776e65727368697605c1b6064820152608401610405565b600954600a54604080516001600160a01b0393841681529290911660208301527fb532073b38c83145e3e5135377a08bf9aab55bc0fd7c1179cd4fb995d2a5159c910160405180910390a1600a8054600980546001600160a01b03199081166001600160a01b03841617909155169055565b61082d823383610bff565b61049c8282610e52565b6060600480546104af9061184b565b61084e610a15565b6105f06110b1565b6000806000610866846006610fac565b915091508161087757600254610879565b805b949350505050565b6000338161088f8286610970565b9050838110156108ef5760405162461bcd60e51b815260206004820152602560248201527f45524332303a2064656372656173656420616c6c6f77616e63652062656c6f77604482015264207a65726f60d81b6064820152608401610405565b6108fc8286868403610adb565b506001949350505050565b600033610540818585610c79565b61091d610a15565b600b54811461093e5760405162461bcd60e51b8152600401610405906117a5565b604051339083156108fc029084906000818181858888f1935050505015801561096b573d6000803e3d6000fd5b505050565b6001600160a01b03918216600090815260016020908152604080832093909416825291909152205490565b6109a3610a15565b6001600160a01b03166000908152600c60205260409020805460ff19169055565b6001600160a01b0383166109e8576109db8261110b565b6109e3611135565b61096b565b6001600160a01b0382166109ff576109db8361110b565b610a088361110b565b61096b8261110b565b5490565b6009546001600160a01b03163314610a875760405162461bcd60e51b815260206004820152602f60248201527f4f6e6c792074686520636f6e7472616374206f776e6572206d6179207065726660448201526e37b936903a3434b99030b1ba34b7b760891b6064820152608401610405565b565b604080516001600160a01b038416602482015260448082018490528251808303909101815260649091019091526020810180516001600160e01b031663a9059cbb60e01b17905261096b908490611143565b6001600160a01b038316610b3d5760405162461bcd60e51b8152602060048201526024808201527f45524332303a20617070726f76652066726f6d20746865207a65726f206164646044820152637265737360e01b6064820152608401610405565b6001600160a01b038216610b9e5760405162461bcd60e51b815260206004820152602260248201527f45524332303a20617070726f766520746f20746865207a65726f206164647265604482015261737360f01b6064820152608401610405565b6001600160a01b0383811660008181526001602090815260408083209487168084529482529182902085905590518481527f8c5be1e5ebec7d5bd14f71427d1e84f3dd0314c0f7b2291e5b200ac8c7c3b925910160405180910390a3505050565b6000610c0b8484610970565b90506000198114610c735781811015610c665760405162461bcd60e51b815260206004820152601d60248201527f45524332303a20696e73756666696369656e7420616c6c6f77616e63650000006044820152606401610405565b610c738484848403610adb565b50505050565b6001600160a01b038316610cdd5760405162461bcd60e51b815260206004820152602560248201527f45524332303a207472616e736665722066726f6d20746865207a65726f206164604482015264647265737360d81b6064820152608401610405565b6001600160a01b038216610d3f5760405162461bcd60e51b815260206004820152602360248201527f45524332303a207472616e7366657220746f20746865207a65726f206164647260448201526265737360e81b6064820152608401610405565b610d4a838383611215565b6001600160a01b03831660009081526020819052604090205481811015610dc25760405162461bcd60e51b815260206004820152602660248201527f45524332303a207472616e7366657220616d6f756e7420657863656564732062604482015265616c616e636560d01b6064820152608401610405565b6001600160a01b03808516600090815260208190526040808220858503905591851681529081208054849290610df99084906117d0565b92505081905550826001600160a01b0316846001600160a01b03167fddf252ad1be2c89b69c2b068fc378daa952ba7f163c4a11628f55a4df523b3ef84604051610e4591815260200190565b60405180910390a3610c73565b6001600160a01b038216610eb25760405162461bcd60e51b815260206004820152602160248201527f45524332303a206275726e2066726f6d20746865207a65726f206164647265736044820152607360f81b6064820152608401610405565b610ebe82600083611215565b6001600160a01b03821660009081526020819052604090205481811015610f325760405162461bcd60e51b815260206004820152602260248201527f45524332303a206275726e20616d6f756e7420657863656564732062616c616e604482015261636560f01b6064820152608401610405565b6001600160a01b0383166000908152602081905260408120838303905560028054849290610f61908490611808565b90915550506040518281526000906001600160a01b038516907fddf252ad1be2c89b69c2b068fc378daa952ba7f163c4a11628f55a4df523b3ef9060200160405180910390a361096b565b60008060008411610ff85760405162461bcd60e51b815260206004820152601660248201527504552433230536e617073686f743a20696420697320360541b6044820152606401610405565b6110006112f0565b84111561104f5760405162461bcd60e51b815260206004820152601d60248201527f4552433230536e617073686f743a206e6f6e6578697374656e742069640000006044820152606401610405565b600061105b8486611300565b84549091508114156110745760008092509250506110aa565b600184600101828154811061109957634e487b7160e01b600052603260045260246000fd5b906000526020600020015492509250505b9250929050565b60006110c1600880546001019055565b60006110cb6112f0565b90507f8030e83b04d87bef53480e26263266d6ca66863aa8506aca6f2559d18aa1cb67816040516110fe91815260200190565b60405180910390a1905090565b6001600160a01b03811660009081526005602052604090206105f09061113083610719565b6113df565b610a87600661113060025490565b6000611198826040518060400160405280602081526020017f5361666545524332303a206c6f772d6c6576656c2063616c6c206661696c6564815250856001600160a01b03166114299092919063ffffffff16565b80519091501561096b57808060200190518101906111b691906116e9565b61096b5760405162461bcd60e51b815260206004820152602a60248201527f5361666545524332303a204552433230206f7065726174696f6e20646964206e6044820152691bdd081cdd58d8d9595960b21b6064820152608401610405565b600e5460ff161561128e5760405162461bcd60e51b815260206004820152603c60248201527f5468697320616374696f6e2063616e6e6f7420626520706572666f726d65642060448201527f7768696c652074686520636f6e747261637420697320706175736564000000006064820152608401610405565b336000908152600c602052604090205460ff16156112e55760405162461bcd60e51b81526020600482015260146024820152731059191c995cdcc81a5b88189b1858dadb1a5cdd60621b6044820152606401610405565b61096b8383836109c4565b60006112fb60085490565b905090565b815460009061131157506000610546565b82546000905b8082101561137b57600061132b8383611438565b90508486828154811061134e57634e487b7160e01b600052603260045260246000fd5b9060005260206000200154111561136757809150611375565b6113728160016117d0565b92505b50611317565b6000821180156113be57508385611393600185611808565b815481106113b157634e487b7160e01b600052603260045260246000fd5b9060005260206000200154145b156113d7576113ce600183611808565b92505050610546565b509050610546565b60006113e96112f0565b9050806113f584611453565b101561096b578254600180820185556000858152602080822090930193909355938401805494850181558252902090910155565b606061087984846000856114a4565b600061144760028484186117e8565b610612908484166117d0565b805460009061146457506000610733565b8154829061147490600190611808565b8154811061149257634e487b7160e01b600052603260045260246000fd5b90600052602060002001549050610733565b6060824710156115055760405162461bcd60e51b815260206004820152602660248201527f416464726573733a20696e73756666696369656e742062616c616e636520666f6044820152651c8818d85b1b60d21b6064820152608401610405565b6001600160a01b0385163b61155c5760405162461bcd60e51b815260206004820152601d60248201527f416464726573733a2063616c6c20746f206e6f6e2d636f6e74726163740000006044820152606401610405565b600080866001600160a01b031685876040516115789190611756565b60006040518083038185875af1925050503d80600081146115b5576040519150601f19603f3d011682016040523d82523d6000602084013e6115ba565b606091505b50915091506115ca8282866115d5565b979650505050505050565b606083156115e4575081610612565b8251156115f45782518084602001fd5b8160405162461bcd60e51b81526004016104059190611772565b60006020828403121561161f578081fd5b81356106128161189c565b6000806040838503121561163c578081fd5b82356116478161189c565b915060208301356116578161189c565b809150509250929050565b600080600060608486031215611676578081fd5b83356116818161189c565b925060208401356116918161189c565b929592945050506040919091013590565b600080604083850312156116b4578182fd5b82356116bf8161189c565b946020939093013593505050565b6000602082840312156116de578081fd5b8135610612816118b1565b6000602082840312156116fa578081fd5b8151610612816118b1565b600060208284031215611716578081fd5b5035919050565b60006020828403121561172e578081fd5b5051919050565b60008060408385031215611747578182fd5b50508035926020909101359150565b6000825161176881846020870161181f565b9190910192915050565b600060208252825180602084015261179181604085016020870161181f565b601f01601f19169190910160400192915050565b6020808252601190820152706572726f722073656375726520636f646560781b604082015260600190565b600082198211156117e3576117e3611886565b500190565b60008261180357634e487b7160e01b81526012600452602481fd5b500490565b60008282101561181a5761181a611886565b500390565b60005b8381101561183a578181015183820152602001611822565b83811115610c735750506000910152565b60028104600182168061185f57607f821691505b6020821081141561188057634e487b7160e01b600052602260045260246000fd5b50919050565b634e487b7160e01b600052601160045260246000fd5b6001600160a01b03811681146105f057600080fd5b80151581146105f057600080fdfea2646970667358221220f1cc02d7b7c585e7f4a059f08c96583c2e93655a4dba07bc86f6a97d05cafaa864736f6c63430008020033",
  "linkReferences": {},
  "deployedLinkReferences": {}
}